S013000041534C3136355F546573742E7372656396
S31500000000700C0020E50E0000CD0D0000E10E000092
S31500000010E10E0000E10E0000E10E0000E10E00001E
S315000000200000000000000000000000000D090000B4
S31500000030E10E000000000000290900007909000017
S31500000040FFFFFFFFFFFFFFFFFFFFFFFFFFFFFFFFBA
S31500000050FFFFFFFFFFFFFFFFFFFFFFFFFFFFFFFFAA
S31500000060FFFFFFFFFFFFFFFFFFFFFFFFFFFFFFFF9A
S31500000070FFFFFFFFFFFFFFFFFFFFFFFFFFFFFFFF8A
S31500000400FFFFFFFFDFCEFFFFFCFF0F00FFFF0F0028
S31500000410FCFF0F00FFFF0F00FCFF0F00FFFF0F00A8
S31500000420FCFF0F20FFFF0F20FCFF7F40FFFF7F40F8
S31500000430FCFF0D40FFFF0D40FFFFFFFFFFFFFFFF2B
S31500000440FFFFFFFFFFFFFFFFFFFFFFFFFFFFFFFFB6
S31500000450FFFFFFFFFFFFFFFFFFFFFFFFFFFFFFFFA6
S31500000460FFFFFFFFFFFFFFFFFFFFFFFFFFFFFFFF96
S31500000470FFFFFFFFFFFFFFFFFFFFFFFFFFFFFFFF86
S31500000480FFFFFFFFFFFFFFFFFFFFFFFFFFFFFFFF76
S31500000490FFFFFFFFFFFFFFFFFFFFFFFFFFFFFFFF66
S315000004A0FFFFFFFFFFFFFFFFFFFFFFFFFFFFFFFF56
S315000004B0FFFFFFFFFFFFFFFFFFFFFFFFFFFFFFFF46
S315000004C0FFFFFFFFFFFFFFFFFFFFFFFFFFFFFFFF36
S315000004D0FFFFFFFFFFFFFFFFFFFFFFFFFFFFFFFF26
S315000004E0FFFFFFFFFFFFFFFFFFFFFFFFFFFFFFFF16
S315000004F0FFFFFFFFFFFFFFFFFFFFFFFFFFFFFFFF06
S3150000050040F20C0040F20C03C2F20000C2F20003FB
S3150000051010B5834205D040F20003C0F2000303B1D8
S31500000520984710BD40F20C0040F20C03C2F20000E6
S31500000530C2F200031B1A9A10D90F8918491010B578
S3150000054029B140F20003C0F2000303B1984710BD81
S3150000055010B540F22004C2F20004237873B9FFF705
S31500000560CFFF40F20003C0F200032BB143F2B020EC
S31500000570C0F2000000E000BF0123237010BDC0469A
S3150000058040F20003C0F2000310B54BB140F2240163
S3150000059043F2B020C2F20001C0F2000000E000BF4A
S315000005A0FFF7C0FF10BDC046F0B5DE4657464E46C3
S315000005B0454642F6E833E0B5C0F200031A8883B038
S315000005C002B9FEE75B689A46EFF31082012383F3D4
S315000005D0108840F20C66C2F20006336833B940F662
S315000005E00051C4F20401CB704033CB703368013341
S315000005F0336082F3108840F6000340F28C12042127
S31500000600C4F204039950EFF31082012383F3108898
S31500000610336813B13368013B33603368002B00D174
S3150000062097E082F3108840F240070520C2F20007E7
S3150000063001F092FD00243B0040F23C0B40F6000521
S31500000640574640F2010940F2FF089A460194C2F269
S31500000650000BC4F204051FE040F28C13EA5000239D
S315000006600193EFF3108289F31088336813B133686E
S31500000670013B3360336833B940F60051C4F20401DC
S31500000680CB708033CB7082F31088012340F2F410D4
S315000006901C1BE4B201F060FDEFF3108289F31088B1
S315000006A0336833B940F60051C4F20401CB704033CD
S315000006B0CB7033680133336082F31088414643F6CA
S315000006C0FE703A88CFF6FE70130A0A4004211B0119
S315000006D09B189B005A59024022430A435A5140F242
S315000006E08012AB58034023430B43AB505346196863
S315000006F00131196040F28C13EB589B07DA0F009218
S31500000700002B04DA5B465A461B680133136043F636
S31500000710FE7C40467A88CFF6FE7C130A024060468D
S315000007201B019B189B005A59024000980243042063
S3150000073002435A5107231A000A400B4291D1019BEA
S31500000740002B89D140F28C13E8508C3BFF3B019380
S3150000075087E740F60051C4F20401CB708033CB70BA
S315000007605FE7C04610B538B94CF20003902201216C
S31500000770C4F27E03995410BD0228FCD142F65011F2
S3150000078040F2A800C0F20001C2F2000000F06EFACA
S31500000790F1E7C04610B5040000F03EF82000FFF770
S315000007A003FF10BD40F2C053C2F200031A6800B541
S315000007B001321A6040F2480385B0C2F20003029388
S315000007C040F67043C2F200030193012342F63C1146
S315000007D0009340F2957042F64C1340F20012C0F2BC
S315000007E00003C0F20001C0F2000001F02FFA40F24F
S315000007F04403C2F20003186008B105B000BD002131
S3150000080000F008F8F9E7C0467047C04610B5FFF794
S31500000810FBFF10BD00BE704770B540F2B854012111
S31500000820C2F200042068494200F094FF012803D078
S3150000083000212068FFF7EEFF40F2BC53C2F200032E
S315000008401A7802B170BD013240F2C0551A70FFF736
S31500000850DDFFC2F200052B68013B2B60002BF1D0B7
S31500000860002300220021206800F0A4FD0128F2D018
S3150000087000212068FFF7CEFF2B68013B2B60002B81
S31500000880EED1DFE740F2C0530022C2F2000310B5FA
S315000008901A6040F2BC53C2F200031A7040F2705262
S315000008A0012140F20010C2F2000200F037FD40F2D2
S315000008B0B853C2F20003186028B1FFF773FF01F0C6
S315000008C009FB002010BD00210800FFF7A3FFF4E795
S315000008D040F21053C2F20003036040F21033C2F23A
S315000008E000030B60802313607047C04640F2B023BC
S315000008F0C2F20003036040F2B003C2F200030B60D1
S31500000900802313607047C04600BEFEE7054A0420F8
S315000009107146084202D0EFF309801047EFF30880D2
S3150000092010470000A1090000084B1968EFF309827F
S31500000930203A0A60F0C244464D4656465F46F0C22B
S3150000094072B601F051FC62B600F002B86C070020E6
S31500000950074801680A681032F0CAA046A946B2469E
S31500000960BB4682F30988203AF0CA024908470000CC
S315000009706C070020FDFFFFFF10B5EFF31084012385
S3150000098083F3108801F01CFC30B14EF60053802230
S31500000990CEF2000352055A6084F3108810BDC0469B
S315000009A010B58369023B1B78022B02D0032B03D8B8
S315000009B010BDFFF7CDFFFBE742F6EC2342F6AC3263
S315000009C042F6003040F20441C0F20003C0F20002D9
S315000009D0C0F2000000F0F8F910B58024011F64048D
S315000009E00C6001240439A2430A6040F60912043956
S315000009F0C0F200020A600200203A4038136010BDBF
S31500000A0010B5EFF31081012383F3108840F2C8522A
S31500000A10C2F20002136801331360012B00D010BD2F
S31500000A2040F2C453C2F2000319604EF60053CEF2F0
S31500000A3000035B68DB05F2D042F6283342F69832B3
S31500000A4042F6003040F2F541C0F20003C0F2000267
S31500000A50C0F2000000F0B8F940F2C852C2F200023B
S31500000A60136810B553B1013B136033B940F2C45358
S31500000A70C2F200031B6883F3108810BD42F6703380
S31500000A8042F6843242F6003040F2FE41C0F20003E4
S31500000A90C0F20002C0F2000000F096F930B560B373
S31500000AA04EF20003C4F201039A8995B212B2002AEB
S31500000AB009DBBFF34F8F30BFBFF36F8F62B6BFF353
S31500000AC06F8F72B619E040F2FE3200210B4C985A35
S31500000AD09C5299810A49084380B29852BFF34F8FBE
S31500000AE030BFBFF36F8F62B6BFF36F8F72B6985A7F
S31500000AF09C52014389B29D81995230BD02A5FFFFE8
S31500000B0000A5FFFF10B572B601F034FA0120FFF719
S31500000B10C5FF62B601F036FA10BDC04640F2186352
S31500000B2040F2E832C2F200031B68B3FBF2F3802204
S31500000B30013B5204934213D24EF210024EF600517C
S31500000B40C020CEF200025360CEF200010B6A00060E
S31500000B501B021B0A03430B620023936007331360D7
S31500000B607047C0464EF60053CEF20003196A074A94
S31500000B7010B51140C02212040A431A62FFF7CEFFD5
S31500000B8062B6BFF36F8F02DF00BEFDE7FFFF00FF17
S31500000B90F0B5DE4657464E464546E0B583B0EFF320
S31500000BA01082012383F3108840F20C63C2F2000323
S31500000BB001931B6833B940F60051C4F20401CB70AF
S31500000BC04033CB7001990B6801330B6082F31088B8
S31500000BD0038800934BB380235B029846224B40F672
S31500000BE00005002140F2FF099C464068C4F2040556
S31500000BF04F4682880468130A3A4047461B013C4226
S31500000C000AD09F18BF00BA4666467F5937405646F7
S31500000C1077516746274077519B189B005C510131FD
S31500000C20009B89B208308B42E2D1EFF31082012398
S31500000C3083F31088019B1B681BB101990B68013B6C
S31500000C400B60019B1B6833B940F60051C4F20401E6
S31500000C50CB708033CB7082F3108803B0F0BCBB46F8
S31500000C60B246A946A046F0BDFFFFFEFF45F254235B
S31500000C7010B5C5F24F0303600800FFF789FF002097
S31500000C8010BDC0464EF20003262240F20C01C4F20B
S31500000C900103985C1B6A8000C2F2000141585B01A7
S31500000CA05B0F40F21862D940C2F200021160704731
S31500000CB04EF2000340F2FE323D49C4F2010330B564
S31500000CC099524CF20001002243F6C870C4F27E012C
S31500000CD00A5440F20C0046F60041C2F20000C0F28F
S31500000CE0DC21016041F20021C0F27A01416048F244
S31500000CF00001C260026181602632995C1A6A89002D
S31500000D0041585201520F40F21864D140C2F2000419
S31500000D10216040F2804201219954A0229A5CCAB116
S31500000D2036229A5C1AB93B315A5CD207FCD54EF290
S31500000D300002A021C4F20102535CDB06DD0F002B8A
S31500000D40FADB55544EF20002A021C4F20102535CB4
S31500000D50DB06FCD44EF2000200213623C4F2010267
S31500000D60D1543C31535CDB07FCD501213123D154EE
S31500000D704FF6C473C4F27E03197040F200130025C7
S31500000D801362DA3BD554D55C136AAD0040595B015A
S31500000D905B0FD84040F2FE3320600648D0524CF23A
S31500000DA0000343F6C872C4F27E03995430BDC046B0
S31500000DB003A5FFFF00A5FFFF44F200032822002140
S31500000DC0C4F204039954704700BEFEE7F8B546F234
S31500000DD0000340F2201240F2CC5500240127C4F251
S31500000DE000039E5A20329B5AC2F200051E40330071
S31500000DF0E3401F4203D02B680BB1E0B298470134A1
S31500000E000435102CF3D146F2000340F23012C4F23E
S31500000E1000039E52F8BDC04646F200000023C4F20D
S31500000E20000042F6C032C0F200029A1812781AB1D7
S31500000E301900C03189000A500133202BF1D17047C7
S31500000E4030B5EFF31081012383F3108840F210636D
S31500000E504000C2F200031A5A1AB11A5A013A92B263
S31500000E601A521B5A83B94EF2000242F6E03340F2A0
S31500000E70FE34C4F20102C0F20003155B185A044B9B
S31500000E802B4383439BB2135381F3108830BDC04676
S31500000E9000A5FFFF70B5EFF31081012383F31088DF
S31500000EA040F210624000C2F20002135A83B94EF2B9
S31500000EB0000442F6E03540F2FE36C4F20104C0F208
S31500000EC00005A35B2D5A2B434AF200552B43A3532F
S31500000ED0135A01339BB2135281F3108870BDC0467A
S31500000EE000BE704710B500F003F8FFF7CBFCFEE735
S31500000EF0F0B54EF6005340F20005CEF20003C0F204
S31500000F00000583B09D600020FFF72CFCFFF7D0FEA4
S31500000F106B460027DC1D277001202378FFF7BAFFF8
S31500000F20EFF31081012686F3108846F6FC73C4F2AF
S31500000F3004039A683C4802409A609A6881F31088D4
S31500000F4040F60001C4F204010A68D207D20F2270EB
S31500000F500A68D207D20F22700A68D207D20F22700F
S31500000F60EFF3108186F310888022986852050243B9
S31500000F709A609B6881F310880120FFF761FF0120CA
S31500000F80FFF7F0FB40F60053284AC4F200039F80A7
S31500000F9027491A802A6841F2000051189960DA60E0
S31500000FA046F2000240F22011C4F20002505240F60E
S31500000FB06C0240F22000C2F20002C2F200009E80E3
S31500000FC00021121A01F074FC40F2000040F20C02FB
S31500000FD043F2B421C2F20000C2F20002121AC0F2B9
S31500000FE0000101F06DFC40F2040540F20803C2F274
S31500000FF00005C2F200035B1B9E10002B05DD0024DA
S3150000100008CD01349847A642FADCFFF73BFEFFF70E
S31500001010D3FE0220FFF7A6FBFFF7FEFE002000F03E
S3150000102009F803B0F0BDC046FFFFFFEF00A5FFFFC4
S3150000103000FCFFFF7047C0460300083301224360EF
S31500001040C360036100235242826003607047C0465A
S31500001050002303617047C046030030B50D680833AE
S315000010606A1C0DD01C005B681A68AA42FAD94B604C
S31500001070996003688C60013361600861036030BD6C
S3150000108004696368F3E7C0460369416882688A6059
S3150000109051605968814206D0002202611A68013AFD
S315000010A01A60186870475A60F6E7C04670B51600B1
S315000010B0026C0400856B52B16EB9406801F000FC09
S315000010C06368226C9B18A2686360934216D201354E
S315000010D00020A56370BDC06801F0F2FB226CE368D6
S315000010E051429B1A2268E360934202D2A3685B18BE
S315000010F0E360022EEBD1002DEAD1E8E723686360B6
S31500001100E5E7C04670B50500FFF77AFC4523EC5CC1
S3150000111064B2002C14DD2E00243603E0013CE2B25A
S3150000112064B26AB16B6A5BB1300001F001F9002864
S31500001130F4D0013C01F0D4F9E2B264B2002AF1D154
S315000011404523FF22EA54FFF787FCFFF759FC4423A7
S31500001150EC5C64B2002C14DD2E00103603E0013C7A
S31500001160E2B264B26AB12B695BB1300001F0E0F81B
S315000011700028F4D0013C01F0B3F9E2B264B2002ACF
S31500001180F1D14423FF22EA54FFF766FC70BDC04646
S3150000119070B504000D0000285ED0C36B002B48D04C
S315000011A0026C190C100C002936D1002851D1FFF71A
S315000011B027FC216CE36B22684B43D0185B1A6260F4
S315000011C0D218A060E260FF2344220020A063A3544B
S315000011D00132A354BDB923691BB9FFF73DFC0120B9
S315000011E070BD2000103001F0A3F80028F5D04EF6AF
S315000011F000538022CEF2000352055A60BFF34F8F90
S31500001200BFF36F8FE9E720001030FFF715FF2000CE
S315000012102430FFF711FFE0E758B9101C9BB292B2D9
S315000012205A4380B28BB24343120C9B181B0C002B03
S31500001230BDD042F6344342F6087242F6004040F210
S315000012406311C0F20003C0F20002C0F20000FFF713
S31500001250BBFD011C181CE1E742F62C4342F608725E
S3150000126042F6004040F22E11C0F20003C0F2000226
S31500001270C0F20000FFF7A8FD10B51C0082B0002BDD
S315000012802BD0D0B182B1C1B148230193019B482B29
S3150000129033D1019BE0632164200001212260FFF726
S315000012A077FF200002B010BD39B948230193019B96
S315000012B0482B22D12200019BECE742F6844342F6FA
S315000012C0EC6242F6004040F2A011C0F20003C0F208
S315000012D00002C0F20000FFF777FD42F6584342F6DF
S315000012E0EC6242F6004040F27711C0F20003C0F211
S315000012F00002C0F20000FFF767FD42F6684342F6BF
S31500001300EC6242F6004040F28911C0F20003C0F2DE
S315000013100002C0F20000FFF757FDC04630B50D00D1
S31500001320140083B0A8B1884213D3002A31D04823D1
S315000013300193019B482B1CD1019B002322600121B4
S31500001340D06313641000FFF723FF2000A56303B0EA
S3150000135030BD42F6904342F6C86242F6004040F283
S315000013604731C0F20003C0F20002C0F20000FFF7EE
S315000013702BFD42F6684342F6EC6242F6004040F22C
S315000013808911C0F20003C0F20002C0F20000FFF7AC
S315000013901BFD42F6584342F6EC6242F6004040F22C
S315000013A07711C0F20003C0F20002C0F20000FFF79E
S315000013B00BFDC046F0B5C64600B584B004008846AD
S315000013C01F000192002800D1D3E0002900D1A5E03A
S315000013D0022F03D1E36B012B00D0BAE001F088F8AD
S315000013E0002800D174E0FFF70BFBA26BE36B9A4277
S315000013F05BD30023022F58D0019A4425002692B3CE
S31500001400002B61D0FFF728FB00F0B4FDFFF7F8FAD8
S31500001410635D5BB2013300D166554523E05C40B2A3
S31500001420013000D1E654FFF717FB01A902A801F02D
S3150000143003F8002800D085E0FFF7E2FAA26BE36B21
S315000014409A4214D0FFF708FB2000FFF75BFE00F07E
S3150000145099FDFFF7D5FAA36BE26B9A4225D8019A5C
S315000014600123002ACCD1FFF7F7FA002028E0FFF786
S31500001470F3FA20000199103000F00AFF2000FFF770
S3150000148041FE00F07FFD50B94EF600538022CEF2A9
S31500001490000352055A60BFF34F8FBFF36F8FFFF7FC
S315000014A0AFFAA26BE36B9A42D9D23A0041462000CA
S315000014B0FFF7FCFD636AFBB920BBFFF7CDFA0120FD
S315000014C004B080BCB846F0BD02A800F0A7FF99E7BB
S315000014D0019B002B00D186E742F6405342F6B462E8
S315000014E042F6004040F28231C0F20003C0F2000230
S315000014F0C0F20000FFF768FC2000243000F018FF5F
S315000015000028DAD04EF600538022CEF200035205B0
S315000015105A60BFF34F8FBFF36F8FCEE7036C002B7C
S3150000152000D155E742F6984342F6B46242F60040CF
S3150000153040F27E31C0F20003C0F20002C0F20000A9
S31500001540FFF742FC2000FFF7DDFD00F01BFD002049
S31500001550B6E742F6F04342F6B46242F6004040F285
S315000015607F31C0F20003C0F20002C0F20000FFF7B4
S315000015702BFC42F62C4342F6B46242F6004040F29F
S315000015807D31C0F20003C0F20002C0F20000FFF796
S315000015901BFCC046F0B5CE46474680B585B0040074
S315000015A089460192002800D1C4E0002900D198E0C4
S315000015B000F09EFF002800D173E0FFF721FAA76B29
S315000015C0002F5BD1019BC3B302A800F027FF44267E
S315000015D040F200084525FFF73FFA00F0CBFCFFF785
S315000015E00FFAA35D5BB2013301D14346A355635D98
S315000015F05BB2013301D143466355FFF72DFA01A9CA
S3150000160002A800F019FF00BBFFF7FAF9A36B4BBB6A
S31500001610FFF722FA20000199243000F039FE20005D
S31500001620FFF770FD00F0AEFC00284ED0FFF7E8F99A
S31500001630A76B1FBB019B002BCDD1FFF70DFA002036
S3150000164005B0C0BCB946B046F0BD2000FFF75AFD54
S3150000165000F098FCFFF7D4F9A36B002BEDD0FFF751
S31500001660FBF9E3E7FFF7F8F92000FFF74BFD00F081
S3150000167089FCFFF7C5F9A76B002FDBD0226C42B1BE
S31500001680E168A3688918E16099423ED2484601F0B4
S3150000169017F9013FA7632369D3BBFFF7DDF90120E3
S315000016A0CEE7019B002B00D187E742F6405342F676
S315000016B0A46242F6004040F2A551C0F20003C0F217
S315000016C00002C0F20000FFF77FFB4EF600538022B7
S315000016D0CEF2000352055A60BFF34F8FBFF36F8FF0
S315000016E0A4E7036C002B00D162E742F6206342F6C2
S315000016F0A46242F6004040F2A051C0F20003C0F2DC
S315000017000002C0F20000FFF75FFB2168E160BDE761
S315000017102000103000F00CFE0028BED04EF600531C
S315000017208022CEF2000352055A60BFF34F8FBFF3FB
S315000017306F8FB2E742F6146342F6A46242F60040A7
S3150000174040F29C51C0F20003C0F20002C0F2000059
S31500001750FFF73AFBF0B585B004000191002800D1EF
S31500001760ABE0036C002B00D097E000F0C1FE002830
S3150000177062D0FFF745F9A36B002B55D1019BABB3A4
S3150000178002A800F04BFE442600274525FFF764F922
S3150000179000F0F0FBFFF734F9A35D5BB2013300D133
S315000017A0A755635D5BB2013300D16755FFF754F966
S315000017B001A902A800F040FEE8B9FFF721F9A36BE2
S315000017C033BBFFF749F920000199243000F060FD92
S315000017D02000FFF797FC00F0D5FB00283FD0FFF76D
S315000017E00FF9A36B03BB019B002BCFD1FFF734F995
S315000017F0002005B0F0BD2000FFF784FC00F0C2FB1E
S31500001800FFF7FEF8A36B002BF0D0FFF725F9E6E70C
S31500001810FFF722F92000FFF775FC00F0B3FBFFF796
S31500001820EFF8A36B002BDED0013BA363236913BB48
S31500001830FFF712F90120DCE7019B002B99D042F655
S31500001840405342F6906242F6004040F23761C0F2E1
S315000018500003C0F20002C0F20000FFF7B5FA4EF630
S3150000186000538022CEF2000352055A60BFF34F8F19
S31500001870BFF36F8FB3E72000103000F059FD00284A
S31500001880D6D04EF600538022CEF2000352055A609F
S31500001890BFF34F8FBFF36F8FCAE742F6945342F6FA
S315000018A0906242F6004040F23261C0F20003C0F29C
S315000018B00002C0F20000FFF787FA42F6146342F610
S315000018C0906242F6004040F22E61C0F20003C0F280
S315000018D00002C0F20000FFF777FAC04670B518B3F1
S315000018E0D1B140F2206300250022C2F2000303E0DA
S315000018F0013208330A2A0CD05C6884420DD0002DD0
S31500001900F6D11C68002CF3D101321D0008330A2AD7
S31500001910F2D10DB12960686070BD40F22063D2003B
S31500001920C2F20003D518F5E742F6F83342F67C62B8
S3150000193042F6004040F61531C0F20003C0F2000244
S31500001940C0F20000FFF740FA70B5040016000D0063
S31500001950FFF756F84422A35C5BB2013301D10023A2
S31500001960A3544522A35C5BB2013301D10023A354E7
S31500001970FFF772F8A36B1BB12000FFF7C3FB70BD26
S31500001980200032002900243000F0A2FCF4E7C04613
S31500001990F8B540F2906340F26C770500C2F200039E
S315000019A0C2F200071E6838680C000430FFF76CFBB3
S315000019B06B1C20D03B6875195D60AE4211D840F2B1
S315000019C0DC63C2F20003186839680431FFF744FB90
S315000019D040F27463C2F200031A68AA4200D91D607D
S315000019E0F8BD40F2D863C2F20003186839680431C2
S315000019F0FFF732FBF4E7002CDCD040F29863C2F22A
S31500001A00000339685A688A6090683968C86039681E
S31500001A10043141603968043191603A6853611A684B
S31500001A2001321A60DCE7C046F8B54746CE46802349
S31500001A3040F2AC6440F2B06640F294654EF600584F
S31500001A4080B540F208775B059946C2F20004C2F2FF
S31500001A500006C2F20005C2F20007CEF200080EE050
S31500001A60FEF7CEFFF368D8680430FFF70DFB2B684E
S31500001A70013B2B602368013B2360FEF7EDFF2368E3
S31500001A80002BEDD13B68012B06D943464A465A60E6
S31500001A90BFF34F8FBFF36F8FFFF734F8EFE7C04602
S31500001AA0F0B5DE4657464E46454640F29063E0B5F1
S31500001AB0C2F200031A6883B0013294461A60002A03
S31500001AC000D17FE040F27463C2F200031A6840F26C
S31500001AD0000B944564D340F2DC67C2F200073A6813
S31500001AE01268002A59D040F28C6940F2087840F218
S31500001AF06C7AC2F20009C2F20008C2F2000A01932F
S31500001B0039E0002159611168013911609A6A6AB198
S31500001B10D969186A556888604160190018318D4284
S31500001B204ED0002199621168013911604A46D96A7E
S31500001B301268914201D94A46116040F208708A0043
S31500001B4052189200C2F200001518686886689860FC
S31500001B50DE60746084605D61434640469B58013395
S31500001B60835053461B68DB6A994201D940F2010B48
S31500001B703B681B6883B13B68DB68DB685A68944541
S31500001B8049D35A699868D9681C1D816048605068B5
S31500001B90A042B6D15160B4E7019B012252421A60BD
S31500001BA040F28063C2F200031B680BB140F2010BE6
S31500001BB0584603B0F0BCBB46B246A946A046F0BDA7
S31500001BC05060AEE740F2DC63C2F200031A681268A6
S31500001BD05ABB40F2D862C2F2000219681068186057
S31500001BE0116040F27C62C2F200021168013111609C
S31500001BF01A68126832B940F27463013AC2F20003FD
S31500001C001A6063E71B68DB681A6840F27463C2F205
S31500001C1000031A605AE7019B1A6040F28063C2F221
S31500001C2000031B68002BC3D0C0E742F6507343F293
S31500001C30701242F6247040F6F421C0F20003C0F29E
S31500001C400002C0F20000FFF7BFF8C046F0B55746E5
S31500001C504E464546DE46E0B583B00D9C81460F00F4
S31500001C6016009A460E9D002C00D1F0E0002D00D102
S31500001C700DE160230193019B602B00D0F7E0602209
S31500001C8000212800019B00F013FE914B2C639C461B
S31500001C9007236644B600A4199C43A3465FB12B00F4
S31500001CA0002434333E571E5516B10134102CF9D199
S31500001CB043230022EA540C9B042B00D9F7E00C9B2B
S31500001CC02C1DEB622000FFF7C3F928001830FFF740
S31500001CD0BFF905230C9A296B9B1AAB614A465346FA
S31500001CE058462D616D62FEF777FE2860FEF788FE86
S31500001CF040F2946340F26C76C2F200031A68C2F2B4
S31500001D00000601321A603268002A50D040F2886814
S31500001D10C2F2000843461B68EA6A002B41D040F233
S31500001D200877C2F2000740F27863C2F2000319682E
S31500001D300131196040F28C63C2F2000319689142C6
S31500001D4000D21A6093009B1840F208729B00C2F200
S31500001D50000299184A689068AA60E8604460946036
S31500001D60FA5869610132FA50FEF776FE43461B685F
S31500001D707BB13368DA6AEB6A9A420AD24EF60053AE
S31500001D808022CEF2000352055A60BFF34F8FBFF395
S31500001D906F8F280003B0F0BCBB46B246A946A046EA
S31500001DA0F0BD3368DB6A9342B9D83560B7E7356072
S31500001DB01B68012B09D040F2087740F28868EA6A6E
S31500001DC0C2F20007C2F20008ADE740F2087740F21F
S31500001DD06409C2F20007B846B9444046FFF72CF939
S31500001DE040F2140CE044C145F7D140F2F46940F2E8
S31500001DF0E068C2F20009C2F200084846FFF71CF983
S31500001E004046FFF719F940F2C460C2F20000FFF73E
S31500001E1013F940F2B060C2F20000FFF70DF940F28C
S31500001E209860C2F20000FFF707F940F2DC634A4609
S31500001E30C2F200031A6040F2D863424640F2886854
S31500001E40C2F200031A60C2F20008EA6A6BE742F6C1
S31500001E50C87343F2CC1242F6247040F24321C0F21A
S31500001E600003C0F20002C0F20000FEF7ADFF43F22D
S31500001E70040343F2CC1242F6247040F24C21C0F225
S31500001E800003C0F20002C0F20000FEF79DFF42F61A
S31500001E90E87343F2CC1242F6247040F24421C0F2B9
S31500001EA00003C0F20002C0F20000FEF78DFF43F20D
S31500001EB0200343F2B41242F6247040F29631C0F287
S31500001EC00003C0F20002C0F20000FEF77DFFC0462C
S31500001ED0FFFFFF3F10B5002488B007AA06A905A892
S31500001EE005940694FEF7F4FC43F2600141F62920BE
S31500001EF0059B079A0293069B00940193C0F200018A
S31500001F000023C0F20000FFF7A1FE28B100F092FC0A
S31500001F10012808D001301CD040F20003C2F20003B1
S31500001F201B6808B010BD80F3108840F2746301226C
S31500001F30C2F2000352421A6040F28863C2F2000302
S31500001F40186040F29063C2F200031C60FEF70AFEBE
S31500001F50E2E743F2680343F2941242F6247040F635
S31500001F602001C0F20003C0F20002C0F20000FEF73A
S31500001F702BFFC04640F27063C2F200031A680132BA
S31500001F801A607047F0B5DE4657464E46454640F263
S31500001F907064E0B5C2F20004236883B0002B00D160
S31500001FA0CAE0FEF72DFD2368013B23602368002B62
S31500001FB06ED140F29463C2F200031B68002B67D017
S31500001FC040F2C46CC2F2000C63461B68002B00D1C1
S31500001FD0ADE040F26C7A40F28C69C2F2000A5346D8
S31500001FE040F2087840F2806BC2F2000900934B463B
S31500001FF0C2F20008C2F2000B40466546D846A44627
S31500002000019337E0002199621168013911609C68DB
S31500002010D9685A69A1604C601C1DA14654684C459C
S3150000202041D01168DC6A0139116001990A6894424D
S3150000203000D90C6040F20871C2F200018A46A20083
S3150000204012199200924451464E4649688F6899602B
S31500002050DF607E608E60514659618358013383503C
S31500002060009B1B68DB6A9C4202D9434601221A6028
S315000020702B68D3B1EB68DB68DC69196A9A6AA160E0
S315000020804C601C0057681834A742BBD15160B9E7B1
S315000020900024FEF7E1FC200003B0F0BCBB46B246CC
S315000020A0A946A046F0BD5160BBE740F2DC63C2F230
S315000020B000031A6864461268C3468AB31B68DB6865
S315000020C01A6840F27463C2F200031A6040F2846632
S315000020D0C2F20006356895B1012706E0FFF7E0FC7D
S315000020E008B15B461F60013D45B12368002BF5D062
S315000020F03368013D01333360002DF6D135605B4610
S315000021001B68002BC4D04EF600538022CEF200038B
S3150000211052055A60BFF34F8FBFF36F8F0124B8E7A4
S3150000212040F27463013AC2F200031A60CEE740F24D
S31500002130806BC2F2000BC9E743F27C0343F28412C0
S3150000214042F6247040F69301C0F20003C0F200028A
S31500002150C0F20000FEF738FE10B570B140F27063B1
S31500002160C2F200031A68A2B91A6801321A60002185
S31500002170FFF70EFCFFF706FF50B94EF6005380221C
S31500002180CEF2000352055A60BFF34F8FBFF36F8F35
S3150000219010BD43F2340343F2A81242F6247040F213
S315000021A02051C0F20003C0F20002C0F20000FEF7A8
S315000021B00BFEC04640F29063C2F2000318687047F7
S315000021C040F27063C2F200031B6810B513B9FFF743
S315000021D067FC10BD40F28463C2F200031A68002057
S315000021E001321A60F5E7C04640F27063C2F200039E
S315000021F01B6870B533B140F280630122C2F200035E
S315000022001A6070BD40F2806240F28C6440F2087041
S31500002210C2F200021360C2F200042368C2F2000098
S3150000222001E023B3013B9900CA1892008258002AA4
S31500002230F7D040F2087540F20872C2F20005AC46CB
S31500002240C9188900C2F2000288184268083152682B
S31500002250614442608A4207D0D16840F26C72C2F291
S31500002260000211602360CCE7C2684260F4E743F2E3
S31500002270A80343F25C1242F6247040F63341C0F2E2
S315000022800003C0F20002C0F20000FEF79DFDC0464A
S3150000229010B50C0060B140F26C73C2F2000319680D
S315000022A01831FEF7D9FE01212000FFF771FB10BDA2
S315000022B043F2B80343F2441242F6247040F64B410F
S315000022C0C0F20003C0F20002C0F20000FEF77CFD7F
S315000022D0030070B508001100D3B140F26C74C2F26D
S315000022E000045A6825689668EA6125682E622568A2
S315000022F018357560256818359560226893621A68E6
S3150000230001321A6009B101204042FFF741FB70BD5E
S3150000231043F2B80343F2241242F6247040F6814198
S31500002320C0F20003C0F20002C0F20000FEF74CFD4E
S31500002330F8B5C368DB68002B5FD0D869196A9A6A5A
S3150000234081604860180054681830844251D00021DA
S31500002350996211680139116040F27062C2F200029E
S315000023601268D96A32BB5A699C68D8681D1DA0607C
S3150000237044605468AC423ED010680138106040F2A8
S315000023808C62C2F200021068884200D2116040F2EC
S3150000239008708A005218C2F200009200161874687B
S315000023A0A7689C60DF607D60A5605E61835801332D
S315000023B083500DE040F2C462C2F200025468A56880
S315000023C0DC611D626860A0609A6213680133136065
S315000023D040F26C73C2F200031B680020DB6A8B427A
S315000023E006D240F280630122C2F200031A60013075
S315000023F0F8BD5160ABE75060BEE743F2C40343F259
S31500002400081242F6247040F6B141C0F20003C0F251
S315000024100002C0F20000FEF7D7FCC04640F27C6323
S31500002420C2F200031B68036040F29063C2F200032D
S315000024301B6843607047C046F0B5C64604000D00F1
S3150000244000B560B300293AD0FEF7DAFA40F290639D
S315000024502A68C2F200031868511C1ED040F27C6143
S31500002460C2F200010F686668B846276847450AD079
S31500002470864208D8002301242B60FEF7EDFA2000DF
S3150000248080BCB846F0BD871BBA42F3D9121A92191E
S315000024902A600A681B68226063600024EDE743F245
S315000024A0D40343F2F00242F6247040F62C51C0F2F7
S315000024B00003C0F20002C0F20000FEF785FC43F202
S315000024C0E00343F2F00242F6247040F62D51C0F2CA
S315000024D00003C0F20002C0F20000FEF775FCC04621
S315000024E040F280630122C2F200031A607047C046C0
S315000024F040F28863C2F200031B6801203BB140F240
S315000025007063C2F2000318684342584140007047A6
S31500002510F0B540F6380483B0C2F20004FEF770FA54
S3150000252025681DB1FEF798FA03B0F0BD40F65807CE
S3150000253040F64406C2F200073800C2F20006FEF773
S315000025407BFD3000FEF778FD40F64003C2F2000343
S315000025501F6040F63C03C2F200031E6040F2B872F0
S3150000256040F270730C210A200095C2F20003C2F2F9
S315000025700002FEF781FE20600028D3D043F2E0116E
S31500002580C0F20001FFF7AAF9CCE7C046F8B5474606
S3150000259040F64008C2F200084346CE461B6880B5A6
S315000025A0DB680500DC680F00231D18009946FEF75E
S315000025B06BFD2422A35C590710D401218B43A3543D
S315000025C02000236A9847C0BCB946B046F8BD7D1BBB
S315000025D0AB4213D82000236A98473500A3692461CB
S315000025E0EE186660B742F2D2AF4201D2B542F1D9D7
S315000025F0434649461868FEF72FFDE1E740F63C03DF
S31500002600C2F2000349461868FEF726FDD8E7C04621
S31500002610F0B54E46DE464546574640F63008E0B52C
S3150000262040F6380440F6400640F63C094EF6005B9C
S315000026307F4B87B0C2F20006C2F20008C2F2000465
S315000026400193C2F20009CEF2000B33681F68002F17
S3150000265000D1ACE0DB681F68FFF78CFCFFF7AAFD32
S3150000266043461B68050083423AD8434618608742B2
S3150000267000D8ADE000222068791BFFF765F9FFF767
S3150000268081FC38B980225B4652055A60BFF34F8FF2
S31500002690BFF36F8F0022206803A9FEF77BFF002897
S315000026A0D3D0039B002BF5DB059D6B6913B1281D69
S315000026B0FEF7EAFCFFF77EFD43461B6807009842DB
S315000026C022D343461F60039B092BE3D8019A9B0044
S315000026D0D3589F460121DB6849421868FFF756FF29
S315000026E033681A68002AF5D14A46126832604A46AB
S315000026F0136043461D60FFF745FCCBE70121DB680D
S3150000270049421868FFF742FF33681A68002AF5D174
S315000027104A46126832604A461360D2E724220123F1
S31500002720A85C04990343AB54AA692D618B186B60AE
S31500002730BB4254D8791A8A4264D8410715D401237A
S3150000274098432333E85428002B6A9847A2E72422AB
S315000027500121AB5C8B43AB549CE7FB1A93424BD3F2
S315000027602B6A280098475346AA6999188A466960D1
S315000027702D618F42F1D29F4201D28B42F0D930684F
S31500002780291DFEF769FCDEE724220121AB5C0B4321
S31500002790AB54049BAB61DBB3DB196B602D61291D68
S315000027A0BB4225D84B461868FEF756FC72E7FFF782
S315000027B0E1FBFFF7FFFC43461B68050083428FD809
S315000027C043461D604B461B681A6853425A4152E7FE
S315000027D0FFF7D8FB29003800FFF7D8FE5AE7B942C1
S315000027E001D99942A9D93068291DFEF735FC51E770
S315000027F03068FEF731FC4DE74B46291D1868FEF799
S315000028002BFCA0E74B46291D1868FEF725FC41E77F
S3150000281043F21C2343F27C2243F2F01040F274315F
S31500002820C0F20003C0F20002C0F20000FEF7CCFACC
S315000028304432000000B589B0FFF76AFE40F638035F
S31500002840C2F200031B6813B3002307AA06A905A852
S3150000285005930693FEF74AF8059B43F26C21029313
S31500002860069B42F2116001930323079A0093C0F27C
S3150000287000010023C0F20000FFF7E8F940F6340338
S31500002880C2F20003186010B1012009B000BD43F286
S31500002890742343F2982243F2F01040F21911C0F269
S315000028A00003C0F20002C0F20000FEF78DFAC04637
S315000028B003008218934200D1704719700133F9E77B
S315000028C0002310B59A4200D110BDCC5CC45401332C
S315000028D0F8E7FFFF4275696C7420776974682052C7
S315000028E0656E6573617320416476616E636564200D
S315000028F0466C657869626C6520536F6674776172A1
S3150000290065205061636B6167652076657273696FD8
S315000029106E20352E302E3000352E302E3000000041
S3150000292000000005F8B5C046F8BC08BC9E467047D6
S31500002930F8B5C046F8BC08BC9E46704741534C31BA
S3150000294036345F48616E646C657200FF00000000FB
S31500002950320000005C29000000000000008000003A
S315000029600000000000800000010000000080000060
S31500002970020000000080000003000000004000008C
S3150000298004000000008000000C0000000080000031
S315000029900E000000004000000F00000000000106CD
S315000029A00001000000000106010100000000010610
S315000029B002010000000001060301000000000106FC
S315000029C005010000000001060601000004000000E9
S315000029D007010000000001000801000004000000DB
S315000029E009010000104000000A0100000400000078
S315000029F00B010000040000000C01000004000000B0
S31500002A000D010000000001050202000000000105A2
S31500002A100302000000000105040200000000010599
S31500002A200502000004000000060200000400000089
S31500002A300702000004000000080200000000010078
S31500002A4000030000400001040103000040000104EF
S31500002A50020300000400000003030000040000005D
S31500002A600403000000000103000400001040000001
S31500002A70020400000000010707040000000001072F
S31500002A8008040000104000000904000000000104D2
S31500002A900A040000000001040B040000040000000A
S31500002AA00005000040000105010500004000010589
S31500002AB002050000040000000305000004000000F9
S31500002AC004050000040000000505000000000000E9
S31500002AD000060000040000000106000004000000DB
S31500002AE0020600000000000003060000756353564E
S31500002AF0434E756D626572203C3D20330000000038
S31500002B002E2E2F72612F6673702F7372632F726D64
S31500002B105F6672656572746F735F706F72742F7023
S31500002B206F72742E6300FFFF2828285343425F54B8
S31500002B30797065202A29202828307845303030459C
S31500002B40303030554C29202B2030783044303055E9
S31500002B504C2920292D3E49435352202620283078DF
S31500002B60314646554C202929203D3D203000FFFFA7
S31500002B707578437269746963616C4E657374696EC6
S31500002B806700FFFF76506F72744578697443726907
S31500002B90746963616C00FFFF76506F7274456E74E2
S31500002BA06572437269746963616C00FF76506F7277
S31500002BB07453564348616E646C65725F4300FFFF51
S31500002BC000000000000000000000000000000000FF
S31500002BD000000000000000000000000000000000EF
S31500002BE0010002000800100003000000F02B0000A6
S31500002BF0030504050505FFFF785175657565000039
S31500002C002E2E2F72612F6177732F4672656552548F
S31500002C104F532F4672656552544F532F536F75723B
S31500002C2063652F71756575652E6300FF7078517544
S31500002C30657565007852657475726E20213D202891
S31500002C40202820282042617365547970655F7420BE
S31500002C502920302029202900707853746174696313
S31500002C6051756575650000007853697A65203D3DAC
S31500002C702073697A656F66282051756575655F747E
S31500002C802029000070784E6577517565756500FFDF
S31500002C907848616E646C650021282028207076498A
S31500002CA074656D546F5175657565203D3D20282806
S31500002CB0766F6964202A2930292029202626202893
S31500002CC020707851756575652D3E75784974656D0A
S31500002CD053697A6520213D20282055426173655449
S31500002CE07970655F7420292030552029202900003D
S31500002CF0212820282078436F7079506F7369746992
S31500002D006F6E203D3D20282028204261736554794E
S31500002D1070655F742029203220292029202626204C
S31500002D202820707851756575652D3E75784C656EF1
S31500002D3067746820213D20312029202900000000E9
S31500002D402128202820785461736B47657453636883
S31500002D506564756C657253746174652829203D3D00
S31500002D60202820282042617365547970655F74209D
S31500002D702920302029202920262620282078546939
S31500002D80636B73546F5761697420213D203020298D
S31500002D90202900FF707851756575652D3E75784957
S31500002DA074656D53697A65203D3D20300000000052
S31500002DB02128202820707851756575652D3E706331
S31500002DC048656164203D3D202828766F6964202A85
S31500002DD0293029202920262620282070785175653B
S31500002DE075652D3E752E7853656D6170686F7265D9
S31500002DF02E784D75746578486F6C64657220213D38
S31500002E00202828766F6964202A293029202920293C
S31500002E1000FFFFFF28207078517565756520290031
S31500002E202128202820282070764275666665722043
S31500002E3029203D3D202828766F6964202A293029DB
S31500002E40202920262620282028207078517565758F
S31500002E506520292D3E75784974656D53697A65201C
S31500002E60213D2028205542617365547970655F7451
S31500002E7020292030552029202900FFFF765175652D
S31500002E807565416464546F5265676973747279003D
S31500002E9078517565756553656D6170686F726554B7
S31500002EA0616B650078517565756552656365697610
S31500002EB06500FFFF78517565756547656E657269D2
S31500002EC06353656E6400FFFF7851756575654372DF
S31500002ED065617465436F756E74696E6753656D6180
S31500002EE070686F72655374617469630078517565B3
S31500002EF0756547656E65726963437265617465538E
S31500002F00746174696300FFFF78517565756547657F
S31500002F106E65726963526573657400FF78546173F8
S31500002F206B0000002E2E2F72612F6177732F467271
S31500002F30656552544F532F4672656552544F532F51
S31500002F40536F757263652F7461736B732E6300FF25
S31500002F502820282028202820707844656C6179650F
S31500002F60645461736B4C69737420292D3E75784ED9
S31500002F70756D6265724F664974656D73203D3D20BF
S31500002F8028205542617365547970655F7420292045
S31500002F90302029203F20282028204261736554795B
S31500002FA070655F74202920312029203A20282028A6
S31500002FB02042617365547970655F74202920302042
S31500002FC0292029202900FFFF707578537461636BEF
S31500002FD042756666657220213D202828766F6964F1
S31500002FE0202A29302900000070785461736B4275DD
S31500002FF06666657220213D202828766F6964202A3E
S31500003000293029007853697A65203D3D2073697A15
S31500003010656F6628205443425F7420290000000033
S3150000302075785072696F72697479203C2028352949
S3150000303000FFFFFF75785363686564756C657253AE
S31500003040757370656E646564203D3D202820554289
S31500003050617365547970655F74202920305500FFCF
S3150000306049444C45000000007852657475726E2024
S31500003070213D2028202D31202900FFFF757853633C
S31500003080686564756C657253757370656E646564A6
S3150000309020213D2028205542617365547970655F73
S315000030A074202920305500FF7578546F705072696E
S315000030B06F7269747900FFFF70784576656E744C9F
S315000030C0697374007078556E626C6F636B656454D7
S315000030D0434200FF707854696D654F757400FFFFB9
S315000030E070785469636B73546F5761697400FFFF9E
S315000030F0785461736B436865636B466F7254696D90
S31500003100654F757400FFFFFF785461736B52656DF0
S315000031106F766546726F6D4576656E744C6973742D
S3150000312000FFFFFF765461736B506C6163654F6EF1
S315000031304576656E744C697374526573747269630F
S3150000314074656400765461736B506C6163654F6E91
S315000031504576656E744C69737400FFFF765461732F
S315000031606B537769746368436F6E7465787400FF98
S31500003170785461736B496E6372656D656E745469DC
S31500003180636B00FF785461736B526573756D6541AF
S315000031906C6C00FF765461736B5374617274536385
S315000031A0686564756C657200765461736B44656C12
S315000031B0617900FF707276496E697469616C697332
S315000031C0654E65775461736B00FFFFFF785461733A
S315000031D06B43726561746553746174696300FFFFC4
S315000031E0546D725100FFFFFF7854696D65720000DF
S315000031F02E2E2F72612F6177732F4672656552549A
S315000032004F532F4672656552544F532F536F757245
S3150000321063652F74696D6572732E6300282070785C
S3150000322054696D65722D3E7854696D65725065728C
S31500003230696F64496E5469636B73203E20302029A0
S3150000324000FFFFFF942600001C2700001C2700003B
S315000032504E270000882700004E2700001C2700008C
S315000032601C2700004E27000088270000546D72209E
S31500003270537663007852657475726E00707276507C
S31500003280726F636573735265636569766564436FD0
S315000032906D6D616E647300FF7854696D657243727B
S315000032A06561746554696D65725461736B00FFFFE7
S309000032B00000000014
S311000032B404000000810500005105000028
S31501010018FFFFFFFFFFFFFFFFFFFFFFFFFFFFFFFFE0
S31101010028FFFFFFFFFFFFFFFFFFFFFFFFD0
S70500000EE507
