S013000041534C3136355F546573742E7372656396
S31500000000080D00206D210000291F00007D21000041
S315000000107D2100007D2100007D2100007D21000062
S3150000002000000000000000000000000005130000B2
S315000000307D21000000000000351300008913000038
S3150000004000000000000000000000000000000000AA
S31500000050000000000B1C0000000000000000000073
S31500000060000000000000000000000000000000008A
S31500000070000000000000000000000000000000007A
S31500000080000000000000000000000000000000006A
S31500000090000000000000000000000000000000005A
S31500000400FFFFFFFFDFCEFFFFFCFF0F00FFFF0F0028
S31500000410FCFF0F00FFFF0F00FCFF0F00FFFF0F00A8
S31500000420FCFF0F20FFFF0F20FCFF7F40FFFF7F40F8
S31500000430FCFF0D40FFFF0D40FFFFFFFFFFFFFFFF2B
S31500000440FFFFFFFFFFFFFFFFFFFFFFFFFFFFFFFFB6
S31500000450FFFFFFFFFFFFFFFFFFFFFFFFFFFFFFFFA6
S31500000460FFFFFFFFFFFFFFFFFFFFFFFFFFFFFFFF96
S31500000470FFFFFFFFFFFFFFFFFFFFFFFFFFFFFFFF86
S31500000480FFFFFFFFFFFFFFFFFFFFFFFFFFFFFFFF76
S31500000490FFFFFFFFFFFFFFFFFFFFFFFFFFFFFFFF66
S315000004A0FFFFFFFFFFFFFFFFFFFFFFFFFFFFFFFF56
S315000004B0FFFFFFFFFFFFFFFFFFFFFFFFFFFFFFFF46
S315000004C0FFFFFFFFFFFFFFFFFFFFFFFFFFFFFFFF36
S315000004D0FFFFFFFFFFFFFFFFFFFFFFFFFFFFFFFF26
S315000004E0FFFFFFFFFFFFFFFFFFFFFFFFFFFFFFFF16
S315000004F0FFFFFFFFFFFFFFFFFFFFFFFFFFFFFFFF06
S3150000050040F20C0040F20C03C2F20000C2F20003FB
S3150000051010B5834205D040F20003C0F2000303B1D8
S31500000520984710BD40F20C0040F20C03C2F20000E6
S31500000530C2F200031B1A9A10D90F8918491010B578
S3150000054029B140F20003C0F2000303B1984710BD81
S3150000055010B540F22004C2F20004237873B9FFF705
S31500000560CFFF40F20003C0F200032BB145F28C50DE
S31500000570C0F2000000E000BF0123237010BDC0469A
S3150000058040F20003C0F2000310B54BB140F2240163
S3150000059045F28C50C2F20001C0F2000000E000BF3C
S315000005A0FFF7C0FF10BDC04680B582B000AF0200A5
S315000005B0BB1D1A8040F60003C4F20403BA1D12885C
S315000005C0120A92B21000BA1D1288FF210A400101D8
S315000005D08A189200D3589B07DB0FDBB21800BD4682
S315000005E002B080BD90B585B000AF0200BB1D1A8079
S315000005F07B1D0A1C1A7040F60003C4F20403BA1DE0
S315000006001288120A92B21000BA1D1288FF210A40FF
S3150000061001018A189200D358FB60FA6843F6FE730C
S31500000620CFF6FE731340FB607B1D1B78FA681343FD
S31500000630BB6040F60003C4F20403BA1D1288120A16
S3150000064092B21400BA1D1288FF210A40B96804202C
S315000006500143200182189200D150C046BD4605B024
S3150000066090BD80B582B000AF02003960BB1D1A8014
S3150000067040F60003C4F20403BA1D1288120A92B2AD
S315000006801000BA1D1288FF210A4001018A18920043
S315000006903968D150C046BD4602B080BD80B582B033
S315000006A000AF012000F037F9030043B1012000F04C
S315000006B057F903001BB1FB1D01221A7002E0FB1D56
S315000006C000221A70FB1D1B781800BD4602B080BDC3
S315000006D080B584B000AF78600A00FB1C1A70FF205A
S315000006E000F088F90300D3B100F093F80023FB6013
S315000006F009E07A68FB68D3181B78180000F0C9F87F
S31500000700FB680133FB60FB1C1B78FA689A42F0D346
S3150000071000F0B0F8012140F20260FFF763FFC04627
S31500000720BD4604B080BDB0B584B000AF786000238C
S31500000730FB600B23FB1801221A707B6800221A70DB
S3150000074031E00B257C19FF2000F00AF90300237025
S315000007507B191B783BB37C19FF2000F026F90300B8
S3150000076023707B191B78F3B17B681B78DB18DAB230
S315000007707B681A7040F20360FFF716FF0300012B37
S3150000078007D17B681B7801221343DAB27B681A70A3
S3150000079006E07B681B7801229343DAB27B681A7005
S315000007A0FB680133FB60FB68072B04D80B23FB189F
S315000007B01B78002BC5D10B23FB181B781800BD46F0
S315000007C004B0B0BD80B500AF40F20140FFF7ECFECB
S315000007D003005A425341DBB21800BD4680BD80B5C6
S315000007E082B000AF002140F20260FFF7FBFE00235B
S315000007F07B6002E07B6801337B607B68632BF9DDFD
S31500000800012140F20260FFF7EDFEC046BD4602B090
S3150000081080BD80B582B000AF00F01DF8012140F226
S315000008200360FFF7DFFE012140F20060FFF7DAFE0A
S31500000830002140F20260FFF7D5FE00237B6002E054
S315000008407B6801337B607B68C72BF9DDC046C046F9
S31500000850BD4602B080BD80B500AF042140F2036002
S31500000860FFF7FFFE042140F20060FFF7FAFEC046E4
S31500000870BD4680BD80B500AF102140F20360FFF792
S31500000880F0FE102140F20060FFF7EBFEC046BD46C9
S3150000089080BD80B586B000AF0200FB1D1A70002334
S315000008A07B6130E0FB1D1B7880221340DA17D31AD8
S315000008B0DB0FDBB2190040F20360FFF793FE012164
S315000008C040F20060FFF78EFE00233B6102E03B69C9
S315000008D001333B613B69C72BF9DD002140F2006023
S315000008E0FFF780FE0023FB6002E0FB680133FB603C
S315000008F0FB68C72BF9DDFA1DFB1D1B78DB1813708F
S315000009007B6901337B617B69072BCBD9C046C04627
S31500000910BD4606B080BD80B584B000AF0200FB1DA9
S315000009201A700023FB6002E0FB680133FB60FB1DCD
S315000009301B78FA689A4206D240F20360FFF734FE4B
S315000009400300012BF0D140F20360FFF72DFE0300F8
S31500000950013B5A425341DBB21800BD4604B080BD8C
S3150000096080B584B000AF0200FB1D1A700023FB6047
S3150000097002E0FB680133FB60FB1D1B78FA689A42B4
S3150000098006D240F20060FFF70FFE0300012BF0D104
S3150000099040F20060FFF708FE0300013B5A42534154
S315000009A0DBB21800BD4604B080BD80B584B000AF90
S315000009B00200FB1D1A700023FB6002E0FB68013396
S315000009C0FB60FB1D1B78FA689A4206D240F2006073
S315000009D0FFF7EAFD0300012BF0D040F20060FFF7BD
S315000009E0E3FD0300013B5A1E9341DBB21800BD46EE
S315000009F004B080BD80B584B000AF0200FB1D1A7044
S31500000A000023FB6002E0FB680133FB60FB1D1B78E3
S31500000A10FA689A4206D240F20140FFF7C5FD03008C
S31500000A20002BF0D040F20140FFF7BEFD03005A1E36
S31500000A309341DBB21800BD4604B080BD80B582B0DC
S31500000A4000AF02003960BB1D1A8040F60003C4F2F5
S31500000A500403BA1D1288120A92B21000BA1D128837
S31500000A60FF210A4001018A1892003968D150C04618
S31500000A70BD4602B080BD80B584B000AF0023FB60E8
S31500000A80EFF310837B607B68FB600123BB60BB6870
S31500000A9083F31088C04640F22863C2F200031B6845
S31500000AA05BB940F60053C4F204030022DA7040F644
S31500000AB00053C4F204034022DA7040F22863C2F203
S31500000AC000031B685A1C40F22863C2F200031A6036
S31500000AD0FB683B603B6883F31088C046C046BD4652
S31500000AE004B080BD80B582B000AF786040F24D039F
S31500000AF0C2F2000301221A70C046BD4602B080BD94
S31500000B0080B584B000AF7860FFF7B5FF002140F2F2
S31500000B100360FFF793FF002140F20060FFF78EFFAE
S31500000B20042140F20260FFF789FF052002F051FC24
S31500000B30FFF7A1FF44F60012C0F2000240F2B40330
S31500000B40C2F200031100180000F0D3FF0300FB609F
S31500000B50FB6873B144F64C03C0F2000344F6D402BA
S31500000B60C0F2000244F66000C0F200006E2101F0FF
S31500000B70B2F940F2B403C2F20003180001F034F8EF
S31500000B800300FB60FB6873B144F64C03C0F200033C
S31500000B9044F6D402C0F2000244F66000C0F200003F
S31500000BA0722101F098F940F24D03C2F200031B785E
S31500000BB08BB340F24D03C2F2000300221A70FFF716
S31500000BC001FE03003BB3FFF769FD03001BB3FFF70C
S31500000BD006FE40F23C03C2F20003180000F01FF8C4
S31500000BE00300C3B140F24402C2F2000240F23C03E9
S31500000BF0C2F200031100180000F04EF840F2440360
S31500000C00C2F200031A7840F24403C2F20003110054
S31500000C101800FFF75DFD022002F0DBFBC3E790B58D
S31500000C2085B000AF78600F23FB1801221A707B682D
S31500000C301800FFF778FD03001BB37B681B78082BB1
S31500000C401FD80123BB600CE07A68BB68D3180F225B
S31500000C50BC181800FFF767FD03002370BB6801335B
S31500000C60BB607B681B781A00BB68934204D20F23D3
S31500000C70FB181B78002BE7D10F23FB1801221A70F3
S31500000C8003E00F23FB1800221A700F23FB181B78B2
S31500000C901800BD4605B090BD90B583B000AF786032
S31500000CA039607B681B78013BDAB27B68110018005B
S31500000CB000F0EFF8030019007B681B78013B7A68A7
S31500000CC0D3181B7899424AD17B6801331B78303B95
S31500000CD0142B3FD89A002E4BD3181B689F463B68AF
S31500000CE0180000F0B8F840E03B68180000F0B3F8D0
S31500000CF03BE03B68180000F0AEF836E03B681800B1
S31500000D0000F0A9F831E03B68180000F0E9F82CE0A3
S31500000D103B68180000F09FF827E03A687B681100EE
S31500000D20180000F037F840F24E03C2F200031B88A9
S31500000D3001339AB240F24E03C2F200031A8014E065
S31500000D403B68180000F087F80FE03B68180000F0D9
S31500000D5082F80AE03B68180000F08CF805E03B6872
S31500000D60180000F087F800E0C0463B681B78013B9E
S31500000D70D9B23B681B78013B3A68D4183B68180027
S31500000D8000F087F803002370C046BD4603B090BD4F
S31500000D908048000080B584B000AF786039603B6859
S31500000DA006221A703B6801337A6892781A707B685B
S31500000DB09A7840F24C03C2F200031A700F217B1896
S31500000DC000221A707B187A18127801321A703B6862
S31500000DD002337A1812781A703B68033300221A70AD
S31500000DE03B6803331A783B68033301210A43D2B2C6
S31500000DF01A703B6803331A783B68033304210A43AD
S31500000E00D2B21A703B6803331A783B680333082161
S31500000E100A43D2B21A703B6803331A783B6803332D
S31500000E2010210A43D2B21A703B6803333A68D2786B
S31500000E301A703B6803333A68D2781A703B680333FA
S31500000E403A68D2781A703B68043300221A70C0469A
S31500000E50BD4604B080BD80B582B000AF78607B68C7
S31500000E6003221A707B68013306221A70C046BD46FB
S31500000E7002B080BD80B582B000AF78607B68032287
S31500000E801A707B68013315221A70C046BD4602B03F
S31500000E9080BD80B584B000AF78600A00FB1C1A7074
S31500000EA00F23FB1800221A700023BB600CE07A683F
S31500000EB0BB68D31819780F22BB18BA1812788A188B
S31500000EC01A70BB680133BB60FB1C1B78BA689A4278
S31500000ED0EDD30F23FB181B781800BD4604B080BD68
S31500000EE080B582B000AF78607B6805221A707B6897
S31500000EF001333F221A707B6802330E221A707B6818
S31500000F00033300221A70C046BD4602B080BD80B5CC
S31500000F1082B000AF0200FB1D1A70FB1D1B7833B9AF
S31500000F204CF20003C4F27E03902201219954FB1D6A
S31500000F301B78022B0BD144F6AC22C0F2000240F221
S31500000F40C403C2F200031100180000F03CFCC046C6
S31500000F50BD4602B080BD80B584B004AF40F2CC037C
S31500000F60C2F200031B685A1C40F2CC03C2F2000313
S31500000F701A6044F6EC02C0F2000244F6F001C0F238
S31500000F80000140F6DD70C0F2000040F25003C2F2EC
S31500000F900003029340F60853C2F2000301930123B3
S31500000FA00093130040F2001202F05BF8020040F2D8
S31500000FB0B003C2F200031A6040F2B003C2F20003AB
S31500000FC01B6843B940F2B003C2F200031B6800215C
S31500000FD0180000F01DF8C046BD4680BD80B582B041
S31500000FE000AF786000F01EF87B681800FFF788FDF8
S31500000FF0C046BD4602B080BD80B500AFC046BD4606
S3150000100080BD80B500AFFFF7F7FFC046BD4680BD87
S3150000101080B582B000AF7860396000BEC046BD467C
S3150000102002B080BD80B582B000AF40F2D403C2F2F8
S3150000103000031B68012252421100180001F0A2FDB4
S3150000104003007B607B68012B08D040F2D403C2F218
S3150000105000031B6800211800FFF7DAFF40F2D003F7
S31500001060C2F200031B7801225340DBB2002B3DD0B5
S3150000107040F2D003C2F2000301221A70FFF7C1FF4B
S3150000108040F2CC03C2F200031B685A1E40F2CC03A6
S31500001090C2F200031A6022E040F2D403C2F2000357
S315000010A0186800230022002101F07CFB03007B600E
S315000010B07B68012B08D040F2D403C2F200031B6800
S315000010C000211800FFF7A4FF40F2CC03C2F2000390
S315000010D01B685A1E40F2CC03C2F200031A6040F2AB
S315000010E0CC03C2F200031B68002BD5D1C046BD4617
S315000010F002B080BD80B500AF40F2CC03C2F200035F
S3150000110000221A6040F2D003C2F2000300221A70D5
S3150000111040F2D803C2F200031A00012140F2001087
S3150000112001F00BFB020040F2D403C2F200031A6086
S3150000113040F2D403C2F200031B6843B940F2D40361
S31500001140C2F200031B6800211800FFF761FFFFF7DA
S3150000115002FF02F07AF900231800BD4680BD80B573
S3150000116084B000AFF860B9607A60FA6840F2201384
S31500001170C2F200031360BA6840F28013C2F20003A1
S3150000118013607B6880221A60C046BD4604B080BDED
S3150000119080B584B000AFF860B9607A60FA6840F252
S315000011A08033C2F200031360BA6840F2E033C2F241
S315000011B0000313607B6880221A60C046BD4604B0F7
S315000011C080BD90B583B000AF02003960FB1D1A7078
S315000011D0FB1D1B787F2B2FD84EF20013CEF2000397
S315000011E0FA1D127852B29208C0329200D358FA1DF4
S315000011F01278110003220A40D200FF2191400A0012
S31500001200D2431A4010003B689B01FF221A40FB1D87
S315000012101B78190003230B40DB009A4011004EF2A5
S315000012200013CEF20003FA1D127852B2920801435F
S31500001230C0329200D15037E04EF60053CEF2000392
S31500001240FA1D127811000F220A40083A9208063257
S3150000125092009B1804331B68FA1D127811000322B2
S315000012600A40D200FF2191400A00D2431A401000E2
S315000012703B689B01FF221A40FB1D1B7819000323C4
S315000012800B40DB009A404EF60053CEF20003F91DE8
S3150000129009780C000F2121400839890802430631DC
S315000012A089005B1804331A60C046BD4603B090BD82
S315000012B080B582B000AF78607B685A1E80235B04DD
S315000012C09A4201D3012319E04EF21003CEF2000335
S315000012D07A68013A5A6001235B4203211800FFF73E
S315000012E070FF4EF21003CEF2000300229A604EF217
S315000012F01003CEF2000307221A6000231800BD4631
S3150000130002B080BD054A04207146084202D0EFF3C0
S3150000131009801047EFF308801047C046CF1300003E
S3150000132080B500AF62B6C046BFF36F8FC04602DF1E
S3150000133000BEFDE7094B1968EFF30982203A0A60FF
S31500001340F0C244464D4656465F46F0C272B602F0BB
S3150000135071FB62B600F004B8C04600000807002022
S31500001360074801680A681032F0CAA046A946B24684
S31500001370BB4682F30988203AF0CA02490847C046AC
S3150000138008070020FDFFFFFF80B584B000AFEFF334
S3150000139010837B607B68FB600123BB60BB6883F3C3
S315000013A01088C04602F00AFA030033B14EF6005325
S315000013B0CEF20003802252055A60FB683B603B6810
S315000013C083F31088C046C046BD4604B080BD80B5D4
S315000013D084B000AF78607B689B69FB60FB68023B6A
S315000013E01A000B217B1812781A707B181B78022BB7
S315000013F003D1FFF7B5FFC04614E00B23FB181B789B
S31500001400032B0FD944F6D823C0F2000344F69C32CE
S31500001410C0F2000244F6EC20C0F2000040F20441A3
S3150000142000F059FDC046BD4604B080BD80B584B00D
S3150000143000AFF860B9607A603B60FB68043BFB6014
S31500001440FB68802252041A60FB68043BFB607B68E1
S31500001450012293431A00FB681A60FB68043BFB6099
S3150000146041F28943C0F20003FA681360FB68143B3B
S31500001470FB603A68FB681A60FB68203BFB60FB6810
S315000014801800BD4604B080BD80B500AF00BEC046A2
S31500001490FDE780B500AF02235B42FF211800FFF78E
S315000014A090FE00F00BF9FFF73BFF02F0C3FA0023B2
S315000014B01800BD4680BD80B584B000AFEFF3108341
S315000014C07B607B68FB600123BB60BB6883F310888D
S315000014D0C04640F2E053C2F200031B685A1C40F2B9
S315000014E0E053C2F200031A6040F2E053C2F2000376
S315000014F01B68012B1DD140F2E453C2F20003FA68C7
S315000015001A604EF60053CEF200035B68DB05DB0D76
S315000015107BB144F61433C0F2000344F6B032C0F295
S31500001520000244F6EC20C0F2000040F2F54100F063
S31500001530D2FCC046BD4604B080BD80B582B000AFC7
S3150000154040F2E053C2F200031B687BB944F65C33F9
S31500001550C0F2000344F6C432C0F2000244F6EC20A6
S31500001560C0F2000040F2FE4100F0B5FC40F2E0534C
S31500001570C2F200031B685A1E40F2E053C2F2000397
S315000015801A6040F2E053C2F200031B684BB940F206
S31500001590E453C2F200031B687B607B6883F3108808
S315000015A0C046C046BD4602B080BDFFFF80B586B0CE
S315000015B000AF786000237B617B68002B3CD04EF245
S315000015C00003C4F201039B899BB27B617B6948F2ED
S315000015D00002134013B34EF20003C4F2010340F2BB
S315000015E0FE329B5A9BB23B614EF20003C4F20103EA
S315000015F040F2FE32274999524EF20003C4F201032B
S3150000160000229A813B699AB24EF20003C4F20103AA
S3150000161021490A4391B240F2FE329952BFF34F8FED
S31500001620C04630BFBFF36F8FC04662B6C046BFF339
S315000016306F8FC04672B6C0467B6948F200021340FF
S315000016401BB34EF20003C4F2010340F2FE329B5A72
S315000016509BB2FB604EF20003C4F2010340F2FE327D
S315000016600C4999524EF20003C4F201037A6992B210
S315000016709A81FB689AB24EF20003C4F2010306494E
S315000016800A4391B240F2FE329952C046BD4606B0B8
S3150000169080BDC04602A5FFFF00A5FFFF80B500AFD5
S315000016A072B6C04601F046FF0120FFF77FFF62B623
S315000016B0C04601F04FFFC046BD4680BD80B500AFB5
S315000016C040F2B463C2F200031B6840F2E832B3FB97
S315000016D0F2F31800FFF7ECFDC046BD4680BD80B5AD
S315000016E084B000AF0023FB60EFF310837B607B6860
S315000016F0FB600123BB60BB6883F31088C04640F2E1
S315000017002863C2F200031B685BB940F60053C4F2BB
S3150000171004030022DA7040F60053C4F204034022A8
S31500001720DA7040F22863C2F200031B685A1C40F2CA
S315000017302863C2F200031A60FB683B603B6883F3D0
S315000017401088C046C046BD4604B080BD80B584B092
S3150000175000AF0023FB60EFF310837B607B68FB60C8
S315000017600123BB60BB6883F31088C04640F2286340
S31500001770C2F200031B6853B140F22863C2F20003B1
S315000017801B685A1E40F22863C2F200031A6040F238
S315000017902863C2F200031B685BB940F60053C4F22B
S315000017A004030022DA7040F60053C4F204038022D8
S315000017B0DA70FB683B603B6883F31088C046C0461E
S315000017C0BD4604B080BD80B584B000AF7860396096
S315000017D07B68FB60FA6845F25423C5F24F03136039
S315000017E03B68180000F005F800231800BD4604B059
S315000017F080BD90B585B000AF78607B68BB60FFF7B1
S315000018006EFF0E23FB1800221A8017E0BB685A6889
S315000018100E217B181B88DB00D3189888BB685A6892
S315000018200C007B181B88DB00D3181B68190000F01E
S3150000183013F83B191A883B1901321A80BB681B88BA
S315000018400E22BA1812889A42E0D3FFF77FFFC046ED
S31500001850BD4605B090BDFFFF90B583B000AF020056
S315000018603960BB1D1A803A6880235B0213403BB384
S3150000187040F60003C4F20403BA1D1288120A92B29B
S315000018801000BA1D1288FF210A4001018A18910032
S31500001890CA5816480240CA5040F60003C4F2040370
S315000018A0BA1D1288120A92B21400BA1D1288FF21BC
S315000018B00A4039680D480140200182189200D15033
S315000018C040F60003C4F20403BA1D1288120A92B24B
S315000018D01000BA1D1288FF210A4001018A189200E1
S315000018E03968D150C046BD4603B090BDFFFFFEFF2C
S315000018F080B582B000AFEFF303837B607B683B600B
S315000019003B001B88DB05DB0D9BB2DBB2103BDBB279
S315000019105BB21800BD4602B080BD80B582B000AF94
S3150000192002003960FB1D1A70FB1D00229A5640F218
S315000019302C63C2F2000392003968D150C046BD46FE
S3150000194002B080BD80B582B000AF0200FB1D1A70E8
S3150000195046F20003C4F20003FA1D127852B2C032F6
S315000019609100CA5808480240CA5046F20003C4F221
S315000019700003FA1D127852B2C0329200D358C04604
S31500001980BD4602B080BDC046FFFFFEFF80B584B0F5
S3150000199000AF0200FB1D1A70FB1D1B785BB218001E
S315000019A0FFF7D0FFBFF35F8FC046FB1D1B785BB20E
S315000019B0FB60FB681F22134019004EF20013CEF2A3
S315000019C00003FA1D127852B2520901208840010024
S315000019D060329200D150C046BD4604B080BD90B57D
S315000019E085B000AFB9607A600F243B19021C1A70EB
S315000019F04EF20013CEF200033A19127852B2920850
S31500001A00C0329200D3583A191278110003220A40C4
S31500001A10D200FF2191400A00D2431A401000BB6851
S31500001A209B01FF221A403B191B78190003230B4028
S31500001A30DB009A4011004EF20013CEF200033A1971
S31500001A40127852B292080143C0329200D1507A689D
S31500001A503B191B785BB211001800FFF75EFFC0460A
S31500001A60BD4605B090BD80B584B000AF0200FB1D39
S31500001A701A70FB1D1B785BB2FB60FB681F221340CC
S31500001A8019004EF20013CEF20003FA685209012043
S31500001A90884001009200D150C046BD4604B080BDCA
S31500001AA080B582B000AF0200FB1D1A70FB1D1B78CB
S31500001AB05BB21800FFF76AFFFB1D1B785BB21800CC
S31500001AC0FFF7D1FFC046BD4602B080BD80B582B0EB
S31500001AD000AF0200FB1D1A70FB1D00229A5640F251
S31500001AE02C63C2F200039200D3581800BD4602B020
S31500001AF080BD80B586B000AF786039607B687B6159
S31500001B003B6802229A567B691A7146F20003C4F2B8
S31500001B1000037A69127952B2C0329200D3583B61FF
S31500001B2046F20003C4F200037A69127952B2C03257
S31500001B3092000021D1503B689A687B699A603B68A5
S31500001B40DA687B69DA603B681A787B695A7146F213
S31500001B500003C4F200037A695279002199543B6864
S31500001B601A790F203B1812011A703B685B79DB016A
S31500001B70D9B23B183A1812780A431A703B68D978DA
S31500001B803B183A1812780A431A7046F20003C4F258
S31500001B9000037A69527911003A1812785A5446F2BB
S31500001BA00003C4F200037A69127952B2C03292007D
S31500001BB03969D1507B691B795BB2002B09DB7B69E4
S31500001BC0042018563B685B7819007B691A00FFF7FA
S31500001BD006FF7A6944F25533C0F2490313600023C5
S31500001BE01800BD4606B080BD80B584B000AF7860F1
S31500001BF07B68FB60FB681B795BB21800FFF750FF40
S31500001C0000231800BD4604B080BDB0B584B000AF57
S31500001C100E257C19FFF76CFE030023707B191B78D9
S31500001C205BB21800FFF752FF0300BB600F217B1861
S31500001C3000221A7046F20003C4F20003BA68527911
S31500001C409B5C9B079B0FDBB2032B03D17B18012206
S31500001C501A7006E00E23FB181B785BB21800FFF71C
S31500001C6071FEBB6883B1BB689B686BB1BB685B796F
S31500001C701A003B005A60BB68DA683B001A60BB6812
S31500001C809B683A00100098470F23FB181B7833B166
S31500001C900E23FB181B785BB21800FFF753FEC046F5
S31500001CA0BD4604B0B0BD80B582B000AF0200FB1DDA
S31500001CB01A704EF20003C4F20103A0229B5CDBB251
S31500001CC0FA1D12789A4231D04EF20003C4F2010393
S31500001CD036229B5CDBB253B94EF20003C4F2010319
S31500001CE03C229B5CDB07DB0FDBB2012BF4D14EF20F
S31500001CF00003C4F20103A0229B5CDB06DB0FDBB210
S31500001D00002BF4D14EF20003C4F20103FA1DA02108
S31500001D1012785A544EF20003C4F20103A0229B5CCF
S31500001D20DB06DB0FDBB2002BF4D100E0C046BD467C
S31500001D3002B080BD80B582B000AF4EF20003C4F29F
S31500001D40010326229B5CDBB27B604EF20003C4F2E9
S31500001D5001031B6A1B0E072213403B6040F20C0373
S31500001D60C2F200037A689200D2583B68DA4040F229
S31500001D70B463C2F200031A60C046BD4602B080BD1D
S31500001D8080B500AF4EF20003C4F2010331220121F7
S31500001D9099544FF6C473C4F27E0301221A704EF2B0
S31500001DA00003C4F2010340F200121A624EF200036D
S31500001DB0C4F20103262200219954FFF7BBFFC04657
S31500001DC0BD4680BD80B500AF40F20C03C2F20003F1
S31500001DD046F60042C0F2DC221A6040F20C03C2F260
S31500001DE0000341F20022C0F27A025A6040F20C036C
S31500001DF0C2F2000348F200029A6040F20C03C2F2FB
S31500001E0000030022DA6040F20C03C2F20003002253
S31500001E101A61FFF78FFFC046BD4680BD80B500AF93
S31500001E204EF20003C4F2010340F2FE321B499952FE
S31500001E304CF20003C4F27E0343F6C87200219954A3
S31500001E40FFF7C0FF00F02EF80020FFF72CFF4EF240
S31500001E500003C4F201033622002199544EF2000316
S31500001E60C4F201033C229B5CDB07DB0FDBB2012BD8
S31500001E70F4D1FFF785FF4EF20003C4F2010340F2EE
S31500001E80FE32074999524CF20003C4F27E0343F630
S31500001E90C87201219954C046BD4680BD03A5FFFF07
S31500001EA000A5FFFF80B500AF4EF20003C4F20103A8
S31500001EB040F2804201219954C046BD4680BD80B59E
S31500001EC000AF44F20003C4F204032822002199540F
S31500001ED0C046BD4680BD80B584B000AFF860B9602D
S31500001EE07A603B6000BEC046FDE780B582B000AFB9
S31500001EF00200FB1D1A70FB1D1A7840F2E853C2F26D
S31500001F0000039200D3585BB1FB1D1A7840F2E853E8
S31500001F10C2F200039200D358FA1D127810009847B7
S31500001F20C046BD4602B080BD80B582B000AF46F265
S31500001F300003C4F200033A1D40F220115B5A1380DD
S31500001F4046F20003C4F2000340F240129B5A9AB2D2
S31500001F50BB1C391D09880A401A80FB1D00221A7015
S31500001F6012E0BB1C1A88FB1D1B78DA401300012205
S31500001F70134023B1FB1D1B781800FFF7B6FFFB1DAE
S31500001F801A78FB1D01321A70FB1D1B780F2BE8D93E
S31500001F9046F20003C4F20003BA1C40F23011128864
S31500001FA05A52C046BD4602B080BD80B582B000AF71
S31500001FB000237B601AE044F6B823C0F200037A6877
S31500001FC09B181B787BB144F6B823C0F200037A68ED
S31500001FD09B181A7846F20003C4F2000311007A68CF
S31500001FE0C0329200D1507B6801337B607B681F2B27
S31500001FF0E1D9C046C046BD4602B080BD80B586B0B8
S3150000200000AF0200FB1D1A7000237B61EFF3108303
S31500002010FB60FB687B6101233B613B6983F31088AE
S31500002020C046FB1D1A7840F2AC63C2F200035200B0
S31500002030D35A9BB283B1FB1D1A7840F2AC63C2F24D
S3150000204000035100CB5A9BB2013B99B240F2AC63FC
S31500002050C2F200035200D152FB1D1A7840F2AC6363
S31500002060C2F200035200D35A9BB2EBB94EF2000300
S31500002070C4F2010340F2FE329B5A9BB20F4A13434D
S315000020809AB2FB1D197844F6D833C0F20003490012
S31500002090CB5ADB4399B24EF20003C4F201030A4065
S315000020A091B240F2FE3299527B69BB60BB6883F302
S315000020B01088C046C046BD4606B080BD00A5FFFFDD
S315000020C080B586B000AF0200FB1D1A7000237B614D
S315000020D0EFF31083FB60FB687B6101233B613B6987
S315000020E083F31088C046FB1D1A7840F2AC63C2F237
S315000020F000035200D35A9BB2DBB94EF20003C4F27E
S31500002100010340F2FE329B5A9AB2FB1D197844F63F
S31500002110D833C0F200034900CB5A13439AB24EF2A9
S315000021200003C4F2010310490A4391B240F2FE32A1
S315000021309952FB1D1A7840F2AC63C2F200035100BB
S31500002140CB5A9BB2013399B240F2AC63C2F20003A0
S315000021505200D1527B69BB60BB6883F31088C046CE
S31500002160C046BD4606B080BD00A5FFFF80B500AFE6
S3150000217000F00AF8FEF7BEFFC046FDE780B500AFE7
S3150000218000BEC046BD4680BD80B582B000AF4EF6EB
S315000021900053CEF2000340F20002C0F200029A6041
S315000021A00020FEF7B4FEFFF739FE00F08DF801209F
S315000021B0FEF7ADFE40F60053C4F2000300229A80FB
S315000021C040F60053C4F200033D4A1A8040F2000371
S315000021D0C0F200031B681A0040F60053C4F2000365
S315000021E038498C4662449A6040F20003C0F200030C
S315000021F01A6840F60053C4F20003DA6046F20003A0
S31500002200C4F2000340F2201241F20001995240F656
S315000022100053C4F2000301229A8040F60812C2F26B
S31500002220000240F22003C2F20003D21A40F2200359
S31500002230C2F200030021180002F0C3FA40F20C02B9
S31500002240C2F2000240F20003C2F20003D21A45F2C3
S315000022509051C0F2000140F20003C2F200031800E0
S3150000226002F0B7FA40F20802C2F2000240F204039A
S31500002270C2F20003D31A9B103B6000237B600AE086
S3150000228040F20403C2F200037A689200D3589847DA
S315000022907B6801337B607A683B689A42F0DBFFF724
S315000022A049FDFFF70CFE0220FEF731FEFFF77DFE2B
S315000022B0002000F087F8C046BD4602B080BDC0468B
S315000022C000A5FFFF00FCFFFF80B58AB000AFFB1D35
S315000022D000221A70FB1D1B780120FFF7F1FE002378
S315000022E07B62EFF31083BB60BB687B620123FB60FC
S315000022F0FB6883F31088C04646F6FC73C4F20403F9
S315000023009A6846F6FC73C4F204032D490A409A60A3
S3150000231046F6FC73C4F204039B687B6A3B613B6927
S3150000232083F31088C04640F60003C4F204031B681A
S31500002330DB07DB0FDBB21A00FB1D1A7040F6000349
S31500002340C4F204031B68DB07DB0FDBB21A00FB1DBC
S315000023501A7040F60003C4F204031B68DB07DB0FA8
S31500002360DBB21A00FB1D1A7000233B62EFF31083E9
S315000023707B617B693B620123BB61BB6983F3108888
S31500002380C04646F6FC73C4F204039A6846F6FC732C
S31500002390C4F20403802149050A439A6046F6FC7399
S315000023A0C4F204039B683B6AFB61FB6983F31088F4
S315000023B0C0460120FFF722FEC046BD460AB080BDDA
S315000023C0FFFFFFEF80B582B000AF7860C046BD4624
S315000023D002B080BD80B582B000AF78607B680833FC
S315000023E01A007B685A607B68012252429A607B68B9
S315000023F008331A007B68DA607B6808331A007B684A
S315000024001A617B6800221A60C046BD4602B080BDD4
S3150000241080B582B000AF78607B6800221A61C04642
S31500002420BD4602B080BD80B584B000AF786039602B
S315000024303B681B68BB60BB68013303D17B681B69C3
S31500002440FB600CE07B680833FB6002E0FB685B68BE
S31500002450FB60FB685B681B68BA689A42F6D2FB6849
S315000024605A683B685A603B685B683A689A603B68A2
S31500002470FA689A60FB683A685A603B687A681A613B
S315000024807B681B685A1C7B681A60C046BD4604B050
S3150000249080BD80B584B000AF78607B681B69FB6047
S315000024A07B685B687A6892689A607B689B687A68E2
S315000024B052685A60FB685B687A689A4203D17B6807
S315000024C09A68FB685A607B6800221A61FB681B6881
S315000024D05A1EFB681A60FB681B681800BD4604B0EC
S315000024E080BDB0B584B000AF786039600123FB6071
S315000024F07B68BB60BB687BB944F6E033C0F200037F
S3150000250044F62C72C0F2000244F6E830C0F2000035
S3150000251040F22E11FFF7DFFCBB68002B00D170E004
S31500002520BB68DB6B002B00D16BE0BB681A6CBB6829
S31500002530DB6B0024150C190CA8B218B988B288B147
S31500002540101C03E089B261B9291C181C92B29BB217
S315000025505A4383B289B24B43120C9B181B149BB28D
S3150000256003B101242300002B4BD1FEF7A4FFBB6867
S315000025701A68BB68D96BBB681B6C4B43D218BB6827
S315000025809A60BB6800229A63BB681A68BB685A6087
S31500002590BB681A68BB68DB6B591EBB681B6C4B4378
S315000025A0D218BB68DA60BB684422FF219954BB6825
S315000025B04522FF2199543B68B3B9BB681B69EBB14F
S315000025C0BB681033180001F022FB0300B3B14EF6CE
S315000025D00053CEF20003802252055A60BFF34F8F9C
S315000025E0C046BFF36F8F09E0BB6810331800FFF7D2
S315000025F0F1FEBB6824331800FFF7ECFEFEF79DFFE3
S3150000260001E00023FB60FB687BB944F61443C0F28B
S31500002610000344F62C72C0F2000244F6E830C0F221
S31500002620000040F26311FFF756FCFB681800BD4638
S3150000263004B0B0BD90B589B002AFF860B9607A60F9
S315000026403B6000237B613B687BB944F63843C0F2AC
S31500002650000344F64072C0F2000244F6E830C0F2CD
S31500002660000040F27711FFF736FCFB686BB33B685E
S315000026705BB37B680BB1BB683BB37B680BB9BB68CC
S315000026801BBB48233B613B69482B0FD044F64843AC
S31500002690C0F2000344F64072C0F2000244F6E8308D
S315000026A0C0F2000040F28911FFF715FC3B693B6858
S315000026B07B612823FB181C787A68B968F8687B69FF
S315000026C00093230000F018F811E07B697BB944F60B
S315000026D06443C0F2000344F64072C0F2000244F6BE
S315000026E0E830C0F2000040F2A011FFF7F4FB7B696E
S315000026F01800BD4607B090BD80B584B000AFF86045
S31500002700B9607A601A00FB1C1A70BB681BB9BB69FA
S31500002710BA691A6002E0BB697A681A60BB69FA682E
S31500002720DA63BB69BA681A64BB6901211800FFF74E
S31500002730D8FEC046BD4604B080BD80B588B002AFA5
S31500002740F860B9607A6000237B61FB689BB1BA6868
S31500002750FB689A420FD87B68F86802220092002232
S315000027600021FFF767FF03007B617B69ABB17B69E3
S31500002770BA689A6311E07B697BB944F68043C0F27C
S31500002780000344F65C72C0F2000244F6E830C0F280
S31500002790000040F24731FFF79EFB7B691800BD46FB
S315000027A006B080BD80B58AB000AFF860B9607A60C7
S315000027B03B6000237B62FB683B623B6A7BB944F665
S315000027C0E033C0F2000344F68072C0F2000244F621
S315000027D0E830C0F2000040F27D31FFF77CFBBB68B9
S315000027E093B93B6A1B6C7BB144F68843C0F2000385
S315000027F044F68072C0F2000244F6E830C0F20000EF
S3150000280040F27E31FFF767FB3B68022B13D13B6A30
S31500002810DB6B012B0FD044F6E043C0F2000344F615
S315000028208072C0F2000244F6E830C0F2000040F2C6
S315000028307F31FFF750FB01F03DFC030003B111E0CF
S315000028407B687BB144F63053C0F2000344F68072D5
S31500002850C0F2000244F6E830C0F2000040F28231D5
S31500002860FFF739FBFEF727FE3B6A9A6B3B6ADB6B89
S315000028709A4202D33B68022B31D13A68B9683B6A67
S31500002880180000F05DFA0300FB613B6A5B6A9BB1CE
S315000028903B6A2433180001F0BAF90300DBB14EF6A7
S315000028A00053CEF20003802252055A60BFF34F8FC9
S315000028B0C046BFF36F8F0EE0FB6963B14EF600535F
S315000028C0CEF20003802252055A60BFF34F8FC046F6
S315000028D0BFF36F8FC046FEF730FE012367E07B68CB
S315000028E01BB9FEF72AFE002361E07B6A33B9142385
S315000028F0FB18180001F07DFA01237B62FEF71DFE2E
S3150000290000F018FEFEF7D7FD3B6A44229B5C5BB2E3
S31500002910013303D13B6A4422002199543B6A452284
S315000029209B5C5BB2013303D13B6A4522002199547B
S31500002930FEF703FE3A1D1423FB181100180001F0E0
S315000029406EFA030053BB3B6A180000F0E9FA030075
S31500002950EBB13B6A10337A681100180001F0D4F825
S315000029603B6A180000F06BFA00F0F4FD0300002B40
S3150000297000D077E74EF60053CEF2000380225205D0
S315000029805A60BFF34F8FC046BFF36F8F0EE03B6AAE
S31500002990180000F054FA00F0DDFD63E73B6A18000A
S315000029A000F04DFA00F0D6FD002300E05AE71800CB
S315000029B0BD460AB080BD80B58AB000AFF860B96088
S315000029C07A6000237B62FB683B623B6A7BB944F614
S315000029D02863C0F2000344F69472C0F2000244F683
S315000029E0E830C0F2000040F29C51FFF774FABB6871
S315000029F093B93B6A1B6C7BB144F63463C0F20003A7
S31500002A0044F69472C0F2000244F6E830C0F20000C8
S31500002A1040F2A051FFF75FFA01F04CFB030003B14F
S31500002A2011E07B687BB144F63053C0F2000344F6F4
S31500002A309472C0F2000244F6E830C0F2000040F2A0
S31500002A40A551FFF748FAFEF736FD3B6A9B6BFB6123
S31500002A50FB6923B3BA683B6A1100180000F0CAF993
S31500002A60FB695A1E3B6A9A633B6A1B699BB13B6AC8
S31500002A701033180001F0CBF8030063B14EF6005393
S31500002A80CEF20003802252055A60BFF34F8FC04634
S31500002A90BFF36F8FC046FEF750FD01236EE07B68E3
S31500002AA01BB9FEF74AFD002368E07B6A33B914239D
S31500002AB0FB18180001F09DF901237B62FEF73DFD2E
S31500002AC000F038FDFEF7F7FC3B6A44229B5C5BB2E4
S31500002AD0013303D13B6A4422002199543B6A4522C3
S31500002AE09B5C5BB2013303D13B6A452200219954BA
S31500002AF0FEF723FD3A1D1423FB181100180001F000
S31500002B008EF903004BBB3B6A180000F0F4F9030092
S31500002B10E3B13B6A24337A681100180000F0F4FF31
S31500002B203B6A180000F08BF900F014FD0300002B3F
S31500002B3089D14EF60053CEF20003802252055A6028
S31500002B40BFF34F8FC046BFF36F8F16E03B6A180086
S31500002B5000F075F900F0FEFC75E73B6A180000F01E
S31500002B606EF900F0F7FC3B6A180000F0C4F90300A8
S31500002B70002B00D167E7002300E064E71800BD469C
S31500002B800AB080BD80B588B000AF78603960002398
S31500002B90FB617B68BB61BB697BB944F62863C0F205
S31500002BA0000344F6A472C0F2000244F6E830C0F214
S31500002BB0000040F22E61FFF78EF9BB691B6C7BB1FA
S31500002BC044F6A853C0F2000344F6A472C0F2000211
S31500002BD044F6E830C0F2000040F23261FFF77BF9BC
S31500002BE001F068FA030003B111E03B687BB144F6DB
S31500002BF03053C0F2000344F6A472C0F2000244F659
S31500002C00E830C0F2000040F23761FFF764F9FEF7E2
S31500002C1052FCBB699B6B7B617B69F3B17B695A1E76
S31500002C20BB699A63BB691B699BB1BB69103318000A
S31500002C3000F0EDFF030063B14EF60053CEF2000341
S31500002C40802252055A60BFF34F8FC046BFF36F8F85
S31500002C50C046FEF772FC01236EE03B681BB9FEF727
S31500002C606CFC002368E0FB6933B90C23FB181800E1
S31500002C7001F0BFF80123FB61FEF75FFC00F05AFC90
S31500002C80FEF719FCBB6944229B5C5BB2013303D19E
S31500002C90BB69442200219954BB6945229B5C5BB207
S31500002CA0013303D1BB69452200219954FEF745FC47
S31500002CB03A000C23FB181100180001F0B0F80300CD
S31500002CC04BBBBB69180000F016F90300E3B1BB6902
S31500002CD024333A681100180000F016FFBB6918008B
S31500002CE000F0ADF800F036FC0300002B8FD14EF655
S31500002CF00053CEF20003802252055A60BFF34F8F75
S31500002D00C046BFF36F8F16E0BB69180000F097F856
S31500002D1000F020FC7BE7BB69180000F090F800F09B
S31500002D2019FCBB69180000F0E6F80300002B00D17F
S31500002D306DE7002300E06AE71800BD4608B080BDD5
S31500002D4080B586B000AFF860B9607A6000233B6159
S31500002D50FB689B6B7B61FB681B6C002B41D07B681F
S31500002D60CBB9FB685868FB681A6CBB68190001F0A0
S31500002D7030FDFB685A68FB681B6CD218FB685A600A
S31500002D80FB685A68FB689B689A422AD3FB681A68F4
S31500002D90FB685A6025E0FB68D868FB681A6CBB685C
S31500002DA0190001F016FDFB68DA68FB681B6C5B42D4
S31500002DB0D218FB68DA60FB68DA68FB681B689A421F
S31500002DC007D2FB689A68FB681B6C5B42D218FB68EB
S31500002DD0DA607B68022B04D17B6913B17B69013B06
S31500002DE07B617B695A1CFB689A633B691800BD4688
S31500002DF006B080BD80B582B000AF786039607B6870
S31500002E001B6CC3B17B68DA687B681B6CD2187B6865
S31500002E10DA607B68DA687B689B689A4203D37B68D2
S31500002E201A687B68DA607B68D9687B681A6C3B68CD
S31500002E30180001F0CEFCC046BD4602B080BD80B58C
S31500002E4084B000AF7860FEF736FB0F23FB187A6874
S31500002E504521525C1A7012E07B685B6AB3B17B68ED
S31500002E602433180000F0D3FE03000BB101F046F83E
S31500002E700F217B181B78013BDAB27B181A700F23DF
S31500002E80FB181B785BB2002BE6DC00E0C0467B68D3
S31500002E904522FF219954FEF750FBFEF70CFB0E234B
S31500002EA0FB187A684421525C1A7012E07B681B6931
S31500002EB0B3B17B681033180000F0A9FE03000BB114
S31500002EC001F01CF80E217B181B78013BDAB27B1847
S31500002ED01A700E23FB181B785BB2002BE6DC00E0B1
S31500002EE0C0467B684422FF219954FEF726FBC04664
S31500002EF0BD4604B080BD80B584B000AF7860FEF7F3
S31500002F00DAFA7B689B6B13B90123FB6001E00023AF
S31500002F10FB60FEF712FBFB681800BD4604B080BDDF
S31500002F2080B584B000AF7860FEF7C5FA7B689A6B0F
S31500002F307B68DB6B9A4202D10123FB6001E0002330
S31500002F40FB60FEF7FAFAFB681800BD4604B080BDC8
S31500002F5080B584B000AF786039600023BB607B68C1
S31500002F607BB944F62473C0F2000344F6B872C0F28B
S31500002F70000244F6E830C0F2000040F61531FEF7D4
S31500002F80AAFF3B687BB30023FB6029E040F2B863ED
S31500002F90C2F20003FA68D2009B1804331B687A68F1
S31500002FA09A4208D1FB68DA0040F2B863C2F2000325
S31500002FB0D318BB6017E0BB687BB940F2B863C2F2B6
S31500002FC00003FA68D200D3583BB9FB68DA0040F236
S31500002FD0B863C2F20003D318BB60FB680133FB6021
S31500002FE0FB68092BD2D9BB682BB1BB683A681A605B
S31500002FF0BB687A685A60C046BD4604B080BD80B5DD
S3150000300086B000AFF860B9607A60FB687B61FEF756
S3150000301052FA7B6944229B5C5BB2013303D17B6924
S315000030204422002199547B6945229B5C5BB20133A3
S3150000303003D17B69452200219954FEF77EFA7B690C
S315000030409B6B33B97B6924337A68B968180000F042
S3150000305087FD7B691800FFF7F2FEC046BD4606B045
S3150000306080BD90B58DB004AFF860B9607A603B6002
S315000030707B6B7BB944F6CC73C0F2000345F2403259
S31500003080C0F2000244F6EC70C0F2000040F24321A8
S31500003090FEF721FFBB6B7BB945F21803C0F20003B4
S315000030A045F24032C0F2000244F6EC70C0F2000075
S315000030B040F24421FEF70FFF60237B617B69602BA2
S315000030C00FD045F23403C0F2000345F24032C0F29D
S315000030D0000244F6EC70C0F2000040F24C21FEF70C
S315000030E0FAFE7B69BB6B0BB37B6BFBB1BB6BFB6106
S315000030F0FB6960220021180001F063FBFB697A6B13
S315000031001A633C687A68B968F86800230393FB6918
S3150000311002931823FB1801933B6B0093230000F0E6
S315000031200DF8FB69180000F099F801E00023BB6177
S31500003130BB691800BD4609B090BDFFFF80B586B0DB
S3150000314000AFF860B9607A603B60BB6A1A6B7B6857
S3150000315041498C4663449B00D3183B613B69072277
S3150000316093433B613B69072213407BB145F2500311
S31500003170C0F2000345F25432C0F2000244F6EC708D
S31500003180C0F2000040F26131FEF7A5FEBB6803B352
S3150000319000237B6114E0BA687B69D31800201856B7
S315000031A0BA6A34217B69D3185B18021C1A70BA6894
S315000031B07B69D3181B785BB233B17B6901337B61C2
S315000031C07B690F2BE7D900E0C046BB6A432200218A
S315000031D099543B6A042B0FD945F29403C0F20003BD
S315000031E045F25432C0F2000244F6EC70C0F2000020
S315000031F040F29631FEF76FFE3B6A042B01D9042399
S315000032003B62BB6A3A6ADA62BB6A04331800FFF7AC
S31500003210FFF8BB6A18331800FFF7FAF8BB6ABA6AF8
S315000032201A613B6A0522D21ABB6A9A61BB6ABA6AFC
S315000032305A62BB6A196B3B68FA683869FEF7F6F89A
S315000032400200BB6A1A607B6A13B17B6ABA6A1A60AB
S31500003250C046BD4606B080BDFFFFFF3F80B584B0C7
S3150000326000AF7860FEF727F940F2E073C2F2000380
S315000032701B685A1C40F2E073C2F200031A6040F267
S315000032800873C2F200031B687BB940F20873C2F2EE
S3150000329000037A681A6040F2E073C2F200031B680A
S315000032A0012B18D100F052FE15E040F2EC73C2F289
S315000032B000031B687BB940F20873C2F200031B6867
S315000032C0DA6A7B68DB6A9A4205D840F20873C2F272
S315000032D000037A681A6040F2FC73C2F200031B68AE
S315000032E05A1C40F2FC73C2F200031A607B68DA6A69
S315000032F040F2E873C2F200031B689A4206D97B6863
S31500003300DA6A40F2E873C2F200031A607B68D96A8F
S3150000331040F20C72C2F200020B009B005B189B008D
S31500003320D31804331B68FB607B68FA689A60FB68F5
S315000033309A687B68DA60FB689B687A6804325A6030
S315000033407B681A1DFB689A607B68DA6A13009B002B
S315000033509B189B0040F20C72C2F200029A187B681E
S315000033605A617B68D96A40F20C72C2F200020B0005
S315000033709B005B189B009B58581C40F20C72C2F2D3
S3150000338000020B009B005B189B009850FEF7D5F8D7
S3150000339040F2EC73C2F200031B68B3B140F208734B
S315000033A0C2F200031B68DA6A7B68DB6A9A420CD2B7
S315000033B04EF60053CEF20003802252055A60BFF348
S315000033C04F8FC046BFF36F8FC046C046BD4604B0A0
S315000033D080BD80B584B000AF78600023FB607B6859
S315000033E003B340F60803C2F200031B687BB145F243
S315000033F0A803C0F2000345F26C32C0F2000244F6A4
S31500003400EC70C0F2000040F22051FEF764FD00F0BF
S3150000341091F87B680021180000F068FE00F09AF829
S315000034200300FB60FB6863B94EF60053CEF200035F
S31500003430802252055A60BFF34F8FC046BFF36F8F8D
S31500003440C046C046BD4604B080BD90B58BB004AF43
S315000034500023FB600023BB603A1D0823F9180C23E8
S31500003460FB181800FDF77BFE7C68BB68FA6845F21E
S315000034702C11C0F2000143F61370C0F20000029254
S3150000348001930023009300232200FFF7EAFD0200C8
S3150000349040F60403C2F200031A6040F60403C2F2C7
S315000034A000031B6813B101237B6101E000237B61EC
S315000034B07B69012B03D100F0AFFE03007B617B69C2
S315000034C0012B1BD101233B613B6983F31088C04666
S315000034D040F60003C2F20003012252421A6040F293
S315000034E0EC73C2F2000301221A6040F2E473C2F2E6
S315000034F0000300221A60FDF7CCFF12E07B6901335E
S315000035000FD145F23413C0F2000345F27832C0F20F
S31500003510000244F6EC70C0F2000040F62001FEF70F
S31500003520DAFC40F20003C2F200031B68C046BD4647
S3150000353007B090BD80B500AF40F60803C2F20003A5
S315000035401B685A1C40F60803C2F200031A60C04604
S31500003550BD4680BD80B586B000AF00237B610023E9
S315000035603B6140F60803C2F200031B687BB945F2D3
S315000035704813C0F2000345F28C32C0F2000244F652
S31500003580EC70C0F2000040F69301FEF7A4FCFDF7D4
S3150000359092FF40F60803C2F200031B685A1E40F66B
S315000035A00803C2F200031A6040F60803C2F20003E1
S315000035B01B68002B00D0ECE040F2E073C2F200037F
S315000035C01B68002B00D1E4E0A4E040F2A073C2F235
S315000035D00003DB68DB687B617B699B6ABB607B6998
S315000035E0DB697A69126A9A607B691B6A7A69D269B1
S315000035F05A60BB685A687B6918339A4203D17B6963
S315000036001A6ABB685A607B6900229A62BB681B68AB
S315000036105A1EBB681A607B695B697B607B699B6825
S315000036207A69D2689A607B69DB687A6992685A60BF
S315000036307B685A687B6904339A4203D17B69DA68EE
S315000036407B685A607B6900225A617B681B685A1E38
S315000036507B681A607B69DA6A40F2E873C2F200039B
S315000036601B689A4206D97B69DA6A40F2E873C2F2AD
S3150000367000031A607B69D96A40F20C72C2F200023A
S315000036800B009B005B189B00D31804331B683B6040
S315000036907B693A689A603B689A687B69DA603B683E
S315000036A09B687A6904325A607B691A1D3B689A6086
S315000036B07B69DA6A13009B009B189B0040F20C7230
S315000036C0C2F200029A187B695A617B69D96A40F294
S315000036D00C72C2F200020B009B005B189B009B5809
S315000036E0581C40F20C72C2F200020B009B005B18E1
S315000036F09B0098507B69DA6A40F20873C2F20003B5
S315000037001B68DB6A9A4205D940F2F473C2F20003E1
S3150000371001221A6040F2A073C2F200031B68002B5C
S3150000372000D052E77B690BB100F0A4FC40F2F073C5
S31500003730C2F200031B68FB60FB68ABB100F03EF809
S3150000374003002BB140F2F473C2F2000301221A60A7
S31500003750FB68013BFB60FB68002BEFD140F2F07386
S31500003760C2F2000300221A6040F2F473C2F20003B0
S315000037701B6873B101233B614EF60053CEF2000382
S31500003780802252055A60BFF34F8FC046BFF36F8F3A
S31500003790C046FDF7D2FE3B691800BD4606B080BDA7
S315000037A080B582B000AF40F2E473C2F200031B683A
S315000037B07B607B681800BD4602B080BD80B588B0CE
S315000037C000AF0023FB6140F60803C2F200031B684A
S315000037D0002B00D01EE140F2E473C2F200031B6826
S315000037E00133BB6140F2E473C2F20003BA691A60A6
S315000037F0BB69CBBB40F29873C2F200031B681B681F
S315000038007BB145F2BC13C0F2000345F29C32C0F214
S31500003810000244F6EC70C0F2000040F6F421FEF718
S315000038205AFB40F29873C2F200031B687B6140F2B8
S315000038309C73C2F200031A6840F29873C2F2000346
S315000038401A6040F29C73C2F200037A691A6040F271
S31500003850F873C2F200031B685A1C40F2F873C2F2F6
S3150000386000031A6000F006FC40F60003C2F20003F3
S315000038701B68BA699A4200D2C3E040F29873C2F25A
S3150000388000031B681B683BB940F60003C2F2000345
S31500003890012252421A60B4E040F29873C2F2000369
S315000038A01B68DB68DB683B613B695B68FB60BA6988
S315000038B0FB689A4206D240F60003C2F20003FA6899
S315000038C01A609EE03B695B69BB603B699B683A692D
S315000038D0D2689A603B69DB683A6992685A60BB684D
S315000038E05A683B6904339A4203D13B69DA68BB687C
S315000038F05A603B6900225A61BB681B685A1EBB6846
S315000039001A603B699B6AF3B13B699B6A7B603B69C2
S31500003910DB693A69126A9A603B691B6A3A69D2693D
S315000039205A607B685A683B6918339A4203D13B69EF
S315000039301A6A7B685A603B6900229A627B681B6838
S315000039405A1E7B681A603B69DA6A40F2E873C2F273
S3150000395000031B689A4206D93B69DA6A40F2E873AB
S31500003960C2F200031A603B69D96A40F20C72C2F2D5
S3150000397000020B009B005B189B00D31804331B68E6
S315000039803B603B693A689A603B689A683B69DA60D3
S315000039903B689B683A6904325A603B691A1D3B686A
S315000039A09A603B69DA6A13009B009B189B0040F201
S315000039B00C72C2F200029A183B695A613B69D96AD5
S315000039C040F20C72C2F200020B009B005B189B00D7
S315000039D09B58581C40F20C72C2F200020B009B006E
S315000039E05B189B0098503B69DA6A40F20873C2F292
S315000039F000031B68DB6A9A4200D83EE70123FB619D
S31500003A003BE740F2F473C2F200031B686BB101237B
S31500003A10FB610AE040F2F073C2F200031B685A1C15
S31500003A2040F2F073C2F200031A60FB691800BD464B
S31500003A3008B080BD80B582B000AF40F60803C2F280
S31500003A4000031B6833B140F2F473C2F20003012293
S31500003A501A6055E040F2F473C2F2000300221A60C5
S31500003A6040F2E873C2F200031B687B6014E07B68D7
S31500003A707BB945F23423C0F2000345F2B032C0F2FE
S31500003A80000244F6EC70C0F2000040F63341FEF747
S31500003A9022FA7B68013B7B6040F20C72C2F20002A4
S31500003AA079680B009B005B189B009B58002BDED0AF
S31500003AB07A6813009B009B189B0040F20C72C2F2BE
S31500003AC000029B183B603B685B685A683B685A601B
S31500003AD03B685A683B6808339A4203D13B68DA6808
S31500003AE03B685A603B685B68DA6840F20873C2F26A
S31500003AF000031A6040F2E873C2F200037A681A60A3
S31500003B00C046BD4602B080BD80B582B000AF7860C9
S31500003B1039607B687BB945F24423C0F2000345F265
S31500003B20C432C0F2000244F6EC70C0F2000040F667
S31500003B304B41FEF7D0F940F20873C2F200031B684E
S31500003B4018331A007B6811001800FEF76CFC3B68FE
S31500003B500121180000F0CAFAC046BD4602B080BD79
S31500003B6080B586B000AFF860B9607A60FB687BB953
S31500003B7045F24423C0F2000345F2DC32C0F20002F3
S31500003B8044F6EC70C0F2000040F68141FEF7A3F95E
S31500003B90FB685B687B6140F20873C2F200031B6836
S31500003BA07A69DA6140F20873C2F200031B687A6927
S31500003BB092681A6240F20873C2F200031A687B69BF
S31500003BC09B6818325A6040F20873C2F200031B6801
S31500003BD018331A007B699A6040F20873C2F2000338
S31500003BE01B68FA689A62FB681B685A1CFB681A60B5
S31500003BF07B6813B101235B42BB607A68BB68110026
S31500003C00180000F073FAC046BD4606B080BD80B508
S31500003C1088B000AF78607B68DB68DB68BB61BB6936
S31500003C207BB945F25023C0F2000345F2FC32C0F2E4
S31500003C30000244F6EC70C0F2000040F6B141FEF717
S31500003C404AF9BB699B6A7B61BB69DB69BA69126A1F
S31500003C509A60BB691B6ABA69D2695A607B695A68FD
S31500003C60BB6918339A4203D1BB691A6A7B695A60E9
S31500003C70BB6900229A627B691B685A1E7B691A60BF
S31500003C8040F60803C2F200031B68002B6FD1BB6924
S31500003C905B69FB60BB699B68BA69D2689A60BB695D
S31500003CA0DB68BA6992685A60FB685A68BB69043374
S31500003CB09A4203D1BB69DA68FB685A60BB69002285
S31500003CC05A61FB681B685A1EFB681A60BB69DA6A90
S31500003CD040F2E873C2F200031B689A4206D9BB6938
S31500003CE0DA6A40F2E873C2F200031A60BB69D96A65
S31500003CF040F20C72C2F200020B009B005B189B00A4
S31500003D00D31804331B68BB60BB69BA689A60BB688A
S31500003D109A68BB69DA60BB689B68BA6904325A6004
S31500003D20BB691A1DBB689A60BB69DA6A13009B00FF
S31500003D309B189B0040F20C72C2F200029A18BB69F3
S31500003D405A61BB69D96A40F20C72C2F200020B00DA
S31500003D509B005B189B009B58581C40F20C72C2F2E9
S31500003D6000020B009B005B189B00985027E040F276
S31500003D70A073C2F200035B683B61BB693A69DA6112
S31500003D803B699A68BB691A623B699B68BA691832D3
S31500003D905A60BB6918331A003B699A60BA6940F2E7
S31500003DA0A073C2F20003936240F2A073C2F2000352
S31500003DB01B685A1C40F2A073C2F200031A60BB696A
S31500003DC0DA6A40F20873C2F200031B68DB6A9A42A1
S31500003DD008D90123FB6140F2F473C2F20003012209
S31500003DE01A6001E00023FB61FB691800BD4608B0BC
S31500003DF080BD80B582B000AF786040F2F873C2F241
S31500003E0000031A687B681A6040F2E473C2F200038A
S31500003E101A687B685A60C046BD4602B080BD80B550
S31500003E2086B000AF786039607B687BB945F2602365
S31500003E30C0F2000345F21842C0F2000244F6EC70EC
S31500003E40C0F2000040F62C51FEF745F83B687BB9FE
S31500003E5045F26C23C0F2000345F21842C0F200029C
S31500003E6044F6EC70C0F2000040F62D51FEF733F830
S31500003E70FDF721FB40F2E473C2F200031B683B61CD
S31500003E807B685B683A69D31AFB603B681B68013341
S31500003E9002D100237B612AE07B681A6840F2F8733E
S31500003EA0C2F200031B689A420AD07B685B683A69D3
S31500003EB09A4205D301237B613B6800221A6016E013
S31500003EC03B681B68FA689A420CD23B681A68FB6822
S31500003ED0D21A3B681A607B681800FFF78AFF002336
S31500003EE07B6104E03B6800221A6001237B61FDF7D9
S31500003EF024FB7B691800BD4606B080BD80B500AFC7
S31500003F0040F2F473C2F2000301221A60C046BD46B5
S31500003F1080BD80B582B000AF786000F069F840F2ED
S31500003F200C73C2F200031B68012B0CD94EF600532A
S31500003F30CEF20003802252055A60BFF34F8FC0466F
S31500003F40BFF36F8FC046FDF7A9FBE6E780B582B0E9
S31500003F5000AF00237B600FE07A6813009B009B187C
S31500003F609B0040F20C72C2F200029B181800FEF78A
S31500003F7031FA7B6801337B607B68042BECD940F215
S31500003F807073C2F200031800FEF724FA40F284733D
S31500003F90C2F200031800FEF71DFA40F2A073C2F247
S31500003FA000031800FEF716FA40F2B473C2F20003DB
S31500003FB01800FEF70FFA40F2CC73C2F200031800A5
S31500003FC0FEF708FA40F29873C2F2000340F27072EC
S31500003FD0C2F200021A6040F29C73C2F2000340F281
S31500003FE08472C2F200021A60C046BD4602B080BDAD
S31500003FF080B582B000AF29E0FDF75DFA40F2B473F8
S31500004000C2F20003DB68DB687B607B680433180060
S31500004010FEF73FFA40F2E073C2F200031B685A1E35
S3150000402040F2E073C2F200031A6040F2C873C2F2B3
S3150000403000031B685A1E40F2C873C2F200031A60DE
S31500004040FDF77BFA7B68180000F00CF840F2C873A5
S31500004050C2F200031B68002BCED1C046C046BD4647
S3150000406002B080BD80B582B000AF7860C046BD4664
S3150000407002B080BD80B500AF40F29873C2F2000373
S315000040801B681B683BB940F60003C2F2000301221D
S3150000409052421A600BE040F29873C2F200031B68AA
S315000040A0DB681A6840F60003C2F200031A60C046D5
S315000040B0BD4680BD80B582B000AF40F2EC73C2F25F
S315000040C000031B6813B901237B600AE040F608036E
S315000040D0C2F200031B6813B902237B6001E00023D0
S315000040E07B607B681800BD4602B080BD80B586B097
S315000040F000AF7860396040F2E473C2F200031B68D7
S315000041007B6140F20873C2F200031B680433180097
S31500004110FEF7BFF97B6801333ED13B68E3B340F25B
S31500004120CC73C2F200035B683B6140F20873C2F2D3
S3150000413000031B683A699A6040F20873C2F20003F2
S315000041401B683A699268DA6040F20873C2F20003AB
S315000041501A683B699B6804325A6040F20873C2F2DF
S3150000416000031B681A1D3B699A6040F20873C2F28D
S3150000417000031A6840F2CC73C2F20003536140F2A6
S31500004180CC73C2F200031B685A1C40F2CC73C2F215
S3150000419000031A60C0463BE07A697B68D318FB606F
S315000041A040F20873C2F200031B68FA685A60FA68A4
S315000041B07B699A420FD240F29C73C2F200031A68DE
S315000041C040F20873C2F200031B68043319001000A2
S315000041D0FEF729F91CE040F29873C2F200031A6850
S315000041E040F20873C2F200031B6804331900100082
S315000041F0FEF719F940F60003C2F200031B68FA68DD
S315000042009A4205D240F60003C2F20003FA681A6029
S31500004210C046BD4606B080BD90B589B004AF002348
S31500004220FB6000F076FA40F63C03C2F200031B681E
S315000042305BB30023BB6000237B603A00391D082373
S31500004240FB181800FCF7A4FF3C687B68BA6845F2C7
S315000042503041C0F2000144F26130C0F20000029227
S3150000426001930323009300232200FEF7FAFE0200C7
S3150000427040F64003C2F200031A6040F64003C2F261
S3150000428000031B680BB10123FB60FB687BB945F299
S315000042903843C0F2000345F25852C0F2000245F21C
S315000042A04040C0F2000040F21911FDF714FEFB6811
S315000042B01800BD4605B090BD80B584B000AFF8606B
S315000042C0B9607A6009E0FB689B69BA68D318BB607D
S315000042D0FB681B6AFA6810009847FB689A69BB6816
S315000042E0D118BB687A68F86800F0E7F80300002B7D
S315000042F0E9D1C046C046BD4604B080BD80B584B095
S3150000430000AF7860396040F63403C2F200031B68E0
S31500004310DB68DB68FB60FB6804331800FEF7B9F85E
S31500004320FB6824229B5C1A000423134033B13A68CD
S315000043307968FB681800FFF7BFFF08E0FB682422D6
S315000043409B5C01229343D9B2FB6824229954FB68F3
S315000043501B6AFA6810009847C046BD4604B080BD87
S3150000436080B584B000AF78600823FB18180000F011
S315000043705DF80300FB60BA68FB681100180000F0E6
S3150000438004F800F0DFF8C046EEE780B584B000AF71
S3150000439078603960FFF7CEF80823FB18180000F0A4
S315000043A068F80300FB60BB68002B38D13B6863B933
S315000043B07A68FB689A4208D8FFF7CCF8FA687B68F7
S315000043C011001800FFF79AFF2CE03B6853B140F646
S315000043D03803C2F200031B681B680BB9012300E017
S315000043E000233B6040F63C03C2F2000318687A687B
S315000043F0FB68D31A3A681900FEF701FEFFF7AAF820
S3150000440003007BB94EF60053CEF20003802252051C
S315000044105A60BFF34F8FC046BFF36F8F02E0FFF7BE
S3150000442099F8FFE7C046BD4604B080BD80B584B0AC
S3150000443000AF786040F63403C2F200031B681B68C5
S315000044400BB9012200E000227B681A607B681B68BA
S3150000445043B940F63403C2F200031B68DB681B68ED
S31500004460FB6001E00023FB60FB681800BD4604B05A
S3150000447080BD80B584B000AF7860FFF791F9030086
S31500004480FB6040F64403C2F200031B68FA689A42D6
S3150000449005D200F009F97B6801221A6002E07B6808
S315000044A000221A6040F64403C2F20003FA681A605A
S315000044B0FB681800BD4604B080BD80B586B000AF6D
S315000044C0F860B9607A603B6000237B61FB68BA687C
S315000044D05A60FB68FA681A61BA687B689A4215D80E
S315000044E07A683B68D21AFB689B699A4202D3012319
S315000044F07B6121E040F63803C2F200031A68FB68CC
S31500004500043319001000FDF78EFF15E07A683B684A
S315000045109A4206D2BA683B689A4202D301237B616B
S315000045200AE040F63403C2F200031A68FB6804335B
S3150000453019001000FDF777FF7B691800BD4606B02D
S3150000454080BDFFFF80B586B000AF98E03B1D1B68BD
S31500004550002B00DA93E03B1D9B687B617B695B69FE
S3150000456023B17B6904331800FDF793FF3B00180065
S31500004570FFF77FFF03003B613B1D1B68092B00D93A
S315000045807AE09A00474BD3181B689F467B69242222
S315000045909B5C01221343D9B27B69242299543B1DAB
S315000045A05A687B699B69D1183B1D5B683A697869D3
S315000045B0FFF783FF0300002B60D07B6924229B5CFE
S315000045C01A000423134053B13B1D5A687B699B694B
S315000045D0D1183A697B691800FFF76EFE08E07B691F
S315000045E024229B5C01229343D9B27B6924229954ED
S315000045F07B691B6A7A69100098473FE07B69242231
S315000046009B5C01229343D9B27B692422995436E0FC
S315000046107B6924229B5C01221343D9B27B69242245
S3150000462099543B1D5A687B699A617B699B697BB982
S3150000463045F20053C0F2000345F27052C0F2000288
S3150000464045F24040C0F2000040F27431FDF743FCF1
S315000046507B699A693B69D1183B693A697869FFF7C2
S315000046602CFF0CE07B6924229B5C01229343D9B288
S315000046707B692422995402E0C04600E0C04640F619
S315000046803C03C2F200031B68391D00221800FEF726
S3150000469092F90300002B00D058E7C046C046BD463D
S315000046A006B080BD3055000080B582B000AF0EE088
S315000046B040F63403C2F200031B68DB681B683B60EC
S315000046C001235A423B6811001800FFF717FE40F617
S315000046D03403C2F200031B681B68002BE8D140F6C6
S315000046E03403C2F200031B687B6040F63803C2F253
S315000046F000031A6840F63403C2F200031A6040F65B
S315000047003803C2F200037A681A60C046BD4602B09A
S3150000471080BD80B582B002AFFCF7CDFE40F63C030B
S31500004720C2F200031B68002B46D140F60C03C2F20E
S3150000473000031800FDF74EFE40F62003C2F2000308
S315000047401800FDF747FE40F63403C2F2000340F6B8
S315000047500C02C2F200021A6040F63803C2F20003ED
S3150000476040F62002C2F200021A6040F6C003C2F20E
S31500004770000340F64802C2F20002002100910C211B
S315000047800A20FDF757FF020040F63C03C2F2000381
S315000047901A6040F63C03C2F200031B6863B140F6A0
S315000047A03C03C2F200031A6845F22853C0F2000324
S315000047B019001000FEF7CCFBFCF7BFFEC046BD4655
S315000047C080BD03008218934200D1704719700133EF
S315000047D0F9E7002310B59A4200D110BDCC5CC45451
S315000047E00133F8E700000005352E302E30000000BA
S315000047F04275696C7420776974682052656E6573BA
S31500004800617320416476616E63656420466C6578E9
S3150000481069626C6520536F667477617265205061BA
S31500004820636B6167652076657273696F6E20352EDE
S31500004830302E3000F8B5C046F8BC08BC9E4670471E
S31500004840F8B5C046F8BC08BC9E4670474653505F54
S3150000485053554343455353203D3D20657272000036
S315000048602E2E2F7372632F41534C3136355F4861BC
S315000048706E646C65725F656E7472792E6300FFFFFD
S31500004880680D0000DE0C0000680D0000E80C00005A
S31500004890F20C0000FC0C0000680D0000680D000022
S315000048A0060D0000100D0000680D00001A0D000036
S315000048B0680D0000680D0000400D00004A0D000064
S315000048C0680D0000680D0000680D0000680D00000E
S315000048D0680D000041534C3136355F48616E646C9B
S315000048E065725F656E74727900FFFFFF000000005D
S315000048F041534C3136345F48616E646C657200FF1B
S315000049000502050003000000E50A000000000000A3
S315000049100000000000800000000000000080000091
S31500004920010000000080000002000000008000007E
S3150000493003000000004000000400000000800000AA
S315000049400C000000008000000E0000000040000087
S315000049500F00000000000106000100000000010633
S31500004960010100000000010602010000000001062E
S315000049700301000000000106050100000000010619
S31500004980060100000400000007010000000001000D
S3150000499008010000040000000901000010400000AA
S315000049A00A010000040000000B01000004000000E2
S315000049B00C010000040000000D01000000000105CC
S315000049C002020000000001050302000000000105CC
S315000049D004020000000001050502000004000000BA
S315000049E006020000040000000702000004000000A8
S315000049F0080200000000010000030000400001045E
S31500004A00010300004000010402030000040000004E
S31500004A10030300000400000004030000000001037B
S31500004A2000040000104000000104000010400000D7
S31500004A30020400000000010707040000000001074F
S31500004A4008040000104000000904000000000104F2
S31500004A500A040000000001040B040000040000002A
S31500004A6000050000400001050105000040000105A9
S31500004A700205000004000000030500000400000019
S31500004A800405000004000000050500000000000009
S31500004A9000060000040000000106000004000000FB
S31500004AA002060000000000000306000033000000BC
S31500004AB01449000000000000000000000013000080
S31500004AC000000000000000000000000000000000E0
S31500004AD0000000000000000075635356434E756DDC
S31500004AE0626572203C3D2033000000002E2E2F729E
S31500004AF0612F6673702F7372632F726D5F667265B6
S31500004B006572746F735F706F72742F706F72742E2C
S31500004B10630000002828285343425F5479706520BB
S31500004B202A29202828307845303030453030305515
S31500004B304C29202B20307830443030554C29202900
S31500004B402D3E49435352202620283078314646557B
S31500004B504C202929203D3D20300000007578437205
S31500004B6069746963616C4E657374696E67000000F1
S31500004B70756C43757272656E745072696F72697482
S31500004B8079203E3D2075634D617853797343616C9E
S31500004B906C5072696F7269747900FFFF76506F729C
S31500004BA07453564348616E646C65725F4300FFFF41
S31500004BB076506F7274456E74657243726974696378
S31500004BC0616C00FF76506F72744578697443726940
S31500004BD0746963616C00FFFF0100020008001000A9
S31500004BE070785175657565002E2E2F72612F61776D
S31500004BF0732F4672656552544F532F467265655240
S31500004C00544F532F536F757263652F7175657565B4
S31500004C102E6300007852657475726E20213D20283F
S31500004C20202820282042617365547970655F7420BE
S31500004C302920302029202900707853746174696313
S31500004C4051756575650000007853697A65203D3DAC
S31500004C502073697A656F66282051756575655F747E
S31500004C602029000070784E657751756575650000DE
S31500004C707070785374617469635175657565000069
S31500004C807848616E646C650021282028207076497A
S31500004C9074656D546F5175657565203D3D202828F6
S31500004CA0766F6964202A2930292029202626202883
S31500004CB020707851756575652D3E75784974656DFA
S31500004CC053697A6520213D20282055426173655439
S31500004CD07970655F7420292030552029202900002D
S31500004CE0212820282078436F7079506F7369746982
S31500004CF06F6E203D3D20282028204261736554793F
S31500004D0070655F742029203220292029202626203C
S31500004D102820707851756575652D3E75784C656EE1
S31500004D2067746820213D20312029202900000000D9
S31500004D302128202820785461736B47657453636873
S31500004D406564756C657253746174652829203D3DF0
S31500004D50202820282042617365547970655F74208D
S31500004D602920302029202920262620282078546929
S31500004D70636B73546F5761697420213D203020297D
S31500004D802029000028206354784C6F636B2029206B
S31500004D90213D2028202820696E74385F7420292040
S31500004DA03132372029000000707851756575652D00
S31500004DB03E75784974656D53697A65203D3D2030AE
S31500004DC0000000002128202820707851756575653F
S31500004DD02D3E706348656164203D3D202828766F2E
S31500004DE06964202A29302920292026262028207097
S31500004DF07851756575652D3E752E7853656D6170B4
S31500004E00686F72652E784D75746578486F6C646549
S31500004E107220213D202828766F6964202A293029AE
S31500004E20202920290000000028207078517565751A
S31500004E3065202900212820282028207076427566C2
S31500004E406665722029203D3D202828766F696420FA
S31500004E502A29302920292026262028202820707853
S31500004E60517565756520292D3E75784974656D53B4
S31500004E70697A6520213D2028205542617365547961
S31500004E8070655F74202920305520292029000000F4
S31500004E9021282028207076427566666572203D3D81
S31500004EA0202828766F6964202A293029202920267F
S31500004EB026202820707851756575652D3E757849D0
S31500004EC074656D53697A6520213D2028205542611D
S31500004ED07365547970655F74202920305520292028
S31500004EE02900000028206352784C6F636B2029202C
S31500004EF0213D2028202820696E74385F74202920DF
S31500004F003132372029000000707851756575652D9E
S31500004F103E75784974656D53697A6520213D203068
S31500004F200000000078517565756500FF785175655C
S31500004F30756547656E65726963526573657400FFD2
S31500004F4078517565756547656E6572696343726507
S31500004F5061746553746174696300FFFF7851756508
S31500004F607565437265617465436F756E74696E67C6
S31500004F7053656D6170686F7265537461746963001F
S31500004F8078517565756547656E6572696353656EBB
S31500004F906400FFFF785175657565526563656976CE
S31500004FA06500FFFF78517565756553656D617068BD
S31500004FB06F726554616B6500765175657565416400
S31500004FC064546F52656769737472790070757853AB
S31500004FD07461636B42756666657220213D202828E0
S31500004FE0766F6964202A2930290000002E2E2F7240
S31500004FF0612F6177732F4672656552544F532F4662
S3150000500072656552544F532F536F757263652F74D3
S3150000501061736B732E63000070785461736B427515
S315000050206666657220213D202828766F6964202AED
S31500005030293029007853697A65203D3D2073697AC5
S31500005040656F6628205443425F74202900000000E3
S3150000505028202820282075696E7433325F74202931
S31500005060207078546F704F66537461636B202620EE
S31500005070282075696E7433325F7420292028203009
S31500005080783030303720292029203D3D2030554CBE
S315000050902029000075785072696F72697479203C16
S315000050A0202835290000000075785363686564750B
S315000050B06C657253757370656E646564203D3D2042
S315000050C028205542617365547970655F74202920E4
S315000050D030550000707850726576696F7573576148
S315000050E06B6554696D65000028207854696D6549C3
S315000050F06E6372656D656E74203E20305520290002
S3150000510075784E65775072696F72697479203C20A4
S3150000511028352900785461736B0000007854617358
S315000051206B546F526573756D6500000049444C45BC
S31500005130000000007852657475726E20213D2028AB
S31500005140202D312029000000757853636865647549
S315000051506C657253757370656E64656420213D20BD
S3150000516028205542617365547970655F7420292043
S315000051703055000070785443420000007070757816
S31500005180537461636B42756666657220213D202803
S3150000519028766F6964202A293029000070707854B7
S315000051A061736B42756666657220213D20282876FC
S315000051B06F6964202A293029000000002820282051
S315000051C028202820707844656C6179656454617381
S315000051D06B4C69737420292D3E75784E756D62652A
S315000051E0724F664974656D73203D3D2028205542F7
S315000051F0617365547970655F7420292030202920F9
S315000052003F202820282042617365547970655F74B9
S31500005210202920312029203A202820282042617385
S3150000522065547970655F7420292030202920292053
S31500005230290000007578546F705072696F72697436
S315000052407900000070784576656E744C6973740059
S315000052507078556E626C6F636B65645443420000F0
S31500005260707854696D654F757400000070785469E4
S31500005270636B73546F576169740000007078544310
S315000052804220213D202828766F6964202A2930296A
S31500005290000000007578496E646578546F5761693F
S315000052A074203C20310000007578496E646578549E
S315000052B06F4E6F74696679203C20310078546173B3
S315000052C06B546F4E6F746966790000007854696399
S315000052D06B436F756E74203D3D2028205469636BC7
S315000052E0547970655F74202920300000282028201A
S315000052F026282070785443422D3E784576656E7494
S315000053004C6973744974656D202920292D3E707887
S31500005310436F6E7461696E65722029203D3D2028B9
S3150000532028766F6964202A29302900007578496E2D
S31500005330646578546F436C656172203C203100FFD0
S31500005340785461736B4372656174655374617469F3
S315000053506300FFFF707276496E697469616C6973E8
S31500005360654E65775461736B00FFFFFF765461737A
S315000053706B44656C617900FF765461736B5374619D
S3150000538072745363686564756C65720078546173F2
S315000053906B526573756D65416C6C00FF7854617373
S315000053A06B496E6372656D656E745469636B00FF5D
S315000053B0765461736B537769746368436F6E746573
S315000053C0787400FF765461736B506C6163654F6E41
S315000053D04576656E744C69737400FFFF765461738D
S315000053E06B506C6163654F6E4576656E744C697380
S315000053F0745265737472696374656400785461737A
S315000054006B52656D6F766546726F6D4576656E7427
S315000054104C69737400FFFFFF785461736B436865D2
S31500005420636B466F7254696D654F757400FFFFFFBD
S31500005430546D7220537663007852657475726E00EF
S315000054402E2E2F72612F6177732F46726565525427
S315000054504F532F4672656552544F532F536F7572D3
S3150000546063652F74696D6572732E63007853697A6C
S3150000547065203D3D2073697A656F66282054696D05
S3150000548065725F7420290000707854696D657242F8
S31500005490756666657200000028207854696D65722D
S315000054A0506572696F64496E5469636B73203E2060
S315000054B0302029007854696D6572000028207854E0
S315000054C0696D65725461736B48616E646C65202109
S315000054D03D202828766F6964202A29302920290052
S315000054E070707854696D65724275666665722021C2
S315000054F03D202828766F6964202A2930290000007B
S315000055002820707854696D65722D3E7854696D65F2
S3150000551072506572696F64496E5469636B73203E9D
S315000055202030202900000000546D725100FFFFFF5B
S31500005530784600008C4500008C450000FC450000C4
S3150000554010460000644600008C4500008C450000B3
S31500005550FC450000104600007854696D6572437280
S315000055606561746554696D65725461736B00FFFF04
S3150000557070727650726F6365737352656365697690
S315000055806564436F6D6D616E647300FF000000001B
S3110000559004000000810500005105000029
S31501010018FFFFFFFFFFFFFFFFFFFFFFFFFFFFFFFFE0
S31101010028FFFFFFFFFFFFFFFFFFFFFFFFD0
S7050000216D6C
